:100000006AC000000C94C41E0C94EB1E8CC000004F
:100010008AC0000088C0000086C0000084C00000C4
:1000200082C0000080C000007EC000000C94B51BA0
:100030007AC0000078C0000076C0000074C00000E4
:100040000C94040F70C000000C94680A0C949A0A77
:100050006AC0000068C0000066C0000064C0000004
:1000600062C0000060C00000000000080002010043
:100070000003040700000000000000000102040863
:100080001020408001020408102001020408102002
:10009000040404040404040402020202020203032E
:1000A00003030303000000002300260029000000D2
:1000B0000000250028002B0000000000240027007D
:1000C0002A00000001000800400000010004050DA6
:1000D0006107C80A8C1E11241FBECFEFD8E0DEBF17
:1000E000CDBF13E0A0E0B1E0EAEBF8E402C0059078
:1000F0000D92A03CB107D9F726E0A0ECB3E001C017
:100100001D92A431B207E1F710E0C6EDD0E004C0C3
:100110002297FE010E94981FC03DD107C9F70E9497
:10012000FA0E0C945B246CCFFC01858596850895AE
:1001300080E991E00895549A0895CF92DF92EF926A
:10014000FF92CF93DF936B017C01EA0162E171E0E2
:100150008CED94E00E94490B2AE030E0B701A60143
:100160008CED94E00E940A0CCE01805991408536B6
:10017000910568F067E271E08CED94E00E94490B14
:100180004AE050E0BE018CED94E00E941C0C69ED49
:1001900071E08CED94E0DF91CF91FF90EF90DF90D4
:1001A000CF900C94540BCF92DF92EF92FF920F936B
:1001B0001F93CF93DF93CDB7DEB72C970FB6F8948C
:1001C000DEBF0FBECDBFE982FA820B831C832D8375
:1001D0003E83588769877A879C8709811A81CB80FB
:1001E000DC80ED80FE8069E271E08CED94E00E949D
:1001F000490B2AE030E0B701A6018CED94E00E94A3
:100200000A0C67E271E08CED94E00E94490B4AE031
:1002100050E06A858CED94E00E94160C67E271E074
:100220008CED94E00E94490B888599858130910579
:1002300041F08230910561F0892B89F46EEE71E016
:1002400002C060E471E08CED94E00E94490B07C0AD
:100250004AE050E06C858CED94E00E94160CC801D9
:100260008E5B91098937910568F067E271E08CED4A
:1002700094E00E94490B4AE050E0B8018CED94E014
:100280000E941C0C69ED71E08CED94E00E94540B0F
:1002900082EDC81684E0D806E104F10419F481E087
:1002A0008093D7042C960FB6F894DEBF0FBECDBF57
:1002B000DF91CF911F910F91FF90EF90DF90CF9042
:1002C0000895FC0160810C947D1D63E471E08CED68
:1002D00094E00E94490B22E030E049E25CE56FE0E7
:1002E0007FE38CED94E00E94070D67E871E08CEDF0
:1002F00094E00E94490B4AE050E06AE070E08CED27
:1003000094E00E94030C65E971E08CED94E00E949A
:10031000490B4AE050E062E070E08CED94E00E940E
:10032000030C6AE971E08CED94E00E94490B4AE00D
:1003300050E064E070E08CED94E00E94030C60EA11
:1003400071E08CED94E00E94490B6091D70470E05D
:100350004AE050E08CED94E00E94030C65E971E006
:100360008CED94E00E94490B6091D60470E04AE065
:1003700050E08CED94E00E94030C69ED71E08CED8F
:1003800094E00C94540B2F923F924F925F926F9295
:100390007F928F929F92AF92BF92CF92DF92EF9215
:1003A000FF920F931F93CF93DF9300D01F92CDB78F
:1003B000DEB75C014B012901FB010481158101506D
:1003C0001109612C712CCC24CA94DC2C212C312CE9
:1003D000E12CF12C7B826A82061517057CF14E1404
:1003E0005F042CF16A817B81C40149830E947E0EE7
:1003F0002A813B812F5F3F4F4981841741F08A81D9
:100400009B818017910719F0DB82CA820CC09FEF95
:10041000E91AF90A1601EFEF2E1A3E0A6016710664
:1004200011F43B832A833901CA80DB80D3CF960144
:10043000A101B401C5010E94A90E08C04E145F04B9
:10044000B4F369E473E0C5010E94C90DC5010F90C2
:100450000F900F90DF91CF911F910F91FF90EF9030
:10046000DF90CF90BF90AF909F908F907F906F90D4
:100470005F904F903F902F9008950F931F93CF93CD
:10048000DF9300E410E0C0E0D0E082E00E947F1043
:10049000892B09F4219669E170E080E090E00E94E8
:1004A0007D0F015011090115110579F7C038D105EB
:1004B00081F41092D6046FEA71E08CED94E00E9412
:1004C000540B8FEF8093D8048093D9041092DA04F0
:1004D00003C081E08093D604DF91CF911F910F91EB
:1004E0000895CF92DF92EF92FF920F93CF93DF9315
:1004F000CDB7DEB762970FB6F894DEBF0FBECDBFA3
:100500007C01BC01CE0101960E94F30D23E030E096
:100510004FE2BE016F5F7F4FCE010D9634DFCE01FB
:1005200001960E945E0DB701CE0101960E94F30D67
:1005300024E030E04FE2BE016F5F7F4FCE010796AF
:1005400022DFCE0101960E945E0DCE010D960E9423
:10055000EC0E6B017C01CE0107960E94EC0E61153A
:10056000710511F460E971E09B012253310903E048
:10057000B701A6018AE00E940A1668EC71E08CEDD2
:1005800094E00E94540BCE0107960E945E0DCE01AE
:100590000D960E945E0D62960FB6F894DEBF0FBEF8
:1005A000CDBFDF91CF910F91FF90EF90DF90CF9073
:1005B00008950F931F93CF93DF93EC0103E010E0B6
:1005C00088818093D80489818093D9048A8180931B
:1005D000DA0483E096E075DE62E370E080E090E0AC
:1005E0000E947D0F1092D8041092D9041092DA0460
:1005F00083E096E066DE62E370E080E090E00E94D7
:100600007D0F0150110901151105D1F6DF91CF9130
:100610001F910F910895CF92DF92EF92FF920F9367
:100620001F93CF93DF93CDB7DEB7A3970FB6F894A0
:10063000DEBF0FBECDBF6C01BC01CE0101960E9492
:10064000F30D23E030E04FE2BE016F5F7F4FCE013C
:100650004B9699DECE0101960E945E0DB601CE0149
:1006600001960E94F30D24E030E04FE2BE016F5F7F
:100670007F4FCE01459687DECE0101960E945E0D2A
:10068000B601CE0101960E94F30D25E030E04FE265
:10069000BE016F5F7F4FCE010F9675DECE010196D2
:1006A0000E945E0DB601CE0101960E94F30D26E078
:1006B00030E04FE2BE016F5F7F4FCE01099663DEEF
:1006C000CE0101960E945E0D60E471E0CE010F96AE
:1006D0000E944E0E81110EC06EEE71E0CE010F969B
:1006E0000E944E0E81110AC0CE010F960E94EC0EA0
:1006F0006B0106C020E1C22ED12C02C0C12CD12C2E
:10070000CE0109960E94EC0E8B016115710511F462
:1007100008EC10E0CE0145960E94EC0EF62ECE01BC
:100720004B960E94EC0EAB01BC010253110993E001
:10073000E92E2AE0CE0101960E943E13C114D10495
:1007400011F440E010C0C60101970F9738F44C2D0A
:100750006F2DCE0101960E9413140AC080E1C816C5
:10076000D10431F441E06F2DCE0101960E94F113C6
:1007700068EC71E08CED94E097D719A280E88AA329
:100780001BA2CE01819615DFCE0109960E945E0D57
:10079000CE010F960E945E0DCE0145960E945E0D21
:1007A000CE014B960E945E0DA3960FB6F894DEBF65
:1007B0000FBECDBFDF91CF911F910F91FF90EF90B2
:1007C000DF90CF900895CF93DF9300D000D000D07A
:1007D000CDB7DEB76CED71E0CE0101960E94C90D78
:1007E000CE01019618DFCE0101960E945E0D809128
:1007F000D70481110FC062EF71E08CED94E054D703
:100800008FEF8093D8041092D9041092DA0483E019
:1008100096E057DD26960FB6F894DEBF0FBECDBF2B
:10082000DF91CF910895CF93DF9300D01F92CDB782
:10083000DEB78091D203811145C01092C40310929B
:10084000C3038FEF8093C7038093C8038093C903CA
:100850008093CA038093CB038093CC0381E0809381
:10086000CD031092CF031092CE031092C6031092C4
:10087000C5038091010690910206892B31F481EC29
:1008800093E09093020680930106E091FF05F091BA
:100890000006309721F081EC93E09583848381EC0E
:1008A00093E0909300068093FF051092D10310927D
:1008B000D0038BE293E09093C2038093C10381E065
:1008C0008093D20320E030E041E050E068ED74E036
:1008D00081EC93E00E94521E8FEF89838A831B82F2
:1008E000CE01019666DE0F900F900F90DF91CF91B1
:1008F00008958F929F92AF92BF92CF92DF92EF9224
:10090000FF920F931F93CF93DF93EC01E881F9815E
:100910009BB190618BB18F7E8BB938852D81D32EA1
:10092000D21ADD82AD84AA81BB812B859A848C8406
:10093000EC80FE807F8119850990D881C02D0981C6
:10094000002331F0402F0D2D400F08F44FEF01C070
:1009500040E0042F029F012D1124C0E04C2F5C2F9A
:100960006C2F002CEA01CC2E4C2D5D2F9BB900C0C2
:1009700007FF8BB960814427889400C000C0002C19
:100980008BB961116E0D00C0002C9BB900C006FF31
:100990008BB908F46FEF889400C000C000C08BB919
:1009A00090FC460F00C0002C9BB900C005FF8BB91E
:1009B0004795889491FC460F00C000C0002C8BB96D
:1009C0004795889400C0002C9BB900C004FF8BB9E8
:1009D00092FC460F4795889400C000C0002C8BB94C
:1009E00093FC460F00C0002C9BB900C003FF8BB9DD
:1009F0004795889494FC460F00C000C0002C8BB92A
:100A00004795889400C0002C9BB900C002FF8BB9A9
:100A100095FC460F4795889400C000C0002C8BB908
:100A200096FC460F00C0002C9BB900C001FF8BB99B
:100A30004795889497FC460F00C000C0002C8BB9E6
:100A40004795889400C0002C9BB900C000FF8BB96B
:100A5000E194E70E00C000C000C0002C8BB9042F49
:100A600000C000C09BB900C007FF8BB9628144275A
:100A7000889400C000C0002C8BB961116F0D00C0BC
:100A8000002C9BB900C006FF8BB908F46FEF889467
:100A900000C000C000C08BB980FC460F00C0002C15
:100AA0009BB900C005FF8BB94795889481FC460F20
:100AB00000C000C0002C8BB94795889400C0002C62
:100AC0009BB900C004FF8BB982FC460F4795889400
:100AD00000C000C0002C8BB983FC460F00C0002C66
:100AE0009BB900C003FF8BB94795889484FC460FDF
:100AF00000C000C0002C8BB94795889400C0002C22
:100B00009BB900C002FF8BB985FC460F47958894BE
:100B100000C000C0002C8BB986FC460F00C0002C22
:100B20009BB900C001FF8BB94795889487FC460F9D
:100B300000C000C0002C8BB94795889400C0002CE1
:100B40009BB900C000FF8BB9EA0DF11D8894042FFA
:100B500000C000C0002C8BB9F194F10E00C0002C35
:100B60009BB900C007FF8BB961814427889400C0FE
:100B700000C0002C8BB961116D0D00C0002C9BB919
:100B800000C006FF8BB908F46FEF889400C000C066
:100B900000C08BB920FD460F00C0002C9BB900C0DF
:100BA00005FF8BB94795889421FD460F00C000C012
:100BB000002C8BB94795889400C0002C9BB900C0CD
:100BC00004FF8BB922FD460F4795889400C000C0F2
:100BD000002C8BB923FD460F00C0002C9BB900C030
:100BE00003FF8BB94795889424FD460F00C000C0D1
:100BF000002C8BB94795889400C0002C9BB900C08D
:100C000002FF8BB925FD460F4795889400C000C0B0
:100C1000002C8BB926FD460F00C0002C9BB900C0EC
:100C200001FF8BB94795889427FD460F00C000C08F
:100C3000002C8BB94795889400C0002C9BB900C04C
:100C400000FF8BB9D194D30E042F00C000C000C0A8
:100C50008BB9119709F08ACEDF91CF911F910F9137
:100C6000FF90EF90DF90CF90BF90AF909F908F90CC
:100C70000895FF920F931F93CF93DF93EC01809120
:100C8000C0038F5F982F97709093C00380FD02C0C0
:100C900080E001C080E891FD8064947009F080627A
:100CA00030E1F32EF80E20E030E000E011E0FE012C
:100CB000E20FF31F6285662331F070E0C8010E94E5
:100CC000351F6F5F01C060E067834F2D469F412D48
:100CD00011244483662311F0615067832F5F3F4FD7
:100CE0002330310521F7DF91CF911F910F91FF90B4
:100CF0000895AF92BF92CF92DF92EF92FF920F933F
:100D0000CF93DF93CDB7DEB72E970FB6F894DEBF43
:100D10000FBECDBF6C015A01F901DC011C968C910C
:100D20007A8369835C834B8390819B8791819C87C5
:100D300092819D87813021F4CE0101969ADF06C011
:100D40001A86198618861F821E821D8289819A81C1
:100D50008E0D911D9A838983002319F083E08E0DF7
:100D600001C080E08E870E945A0FF60127853089E6
:100D7000621B730B6A307105B0F3F894CE010196D3
:100D8000B8DD20EE31E0D5010E94861FE4E09695A3
:100D9000879577956795EA95D1F720E030E04AE9A5
:100DA000A49E212DB49E200D311D1124620F731FAE
:100DB000811D911D693EF3E07F0781059105A8F132
:100DC000DC01CB01885E9340A109B10942E0B695F0
:100DD000A795979587954A95D1F740E050E027E091
:100DE000829F412D929F400D511D11242091DB04C3
:100DF00030E0280F391F240F351F80917A0590911C
:100E00007B05A0917C05B0917D05432F5527840F6C
:100E1000951FA11DB11D80937A0590937B05A0932A
:100E20007C05B0937D052093DB0478940E945A0FD3
:100E3000D60150967C936E931F972E960FB6F8941A
:100E4000DEBF0FBECDBFDF91CF910F91FF90EF902E
:100E5000DF90CF90BF90AF900895EF92FF920F93E5
:100E6000E12CF12C00E045DF0F91FF90EF90089509
:100E7000EF92FF920F93E12CF12C01E03ADF0F91FA
:100E8000FF90EF900895EF92FF920F93CF93DF932F
:100E900000D01F92CDB7DEB7AB0119821A821B8238
:100EA000E12CF12C00E09E012F5F3F4FB90121DFC3
:100EB0000F900F900F90DF91CF910F91FF90EF90D7
:100EC0000895EF920F93E12C0DE02AE042E060EDEF
:100ED00077E08AED93E00E94CB170F91EF90089591
:100EE000CCDA4DE950E062E08FEF0E94F61543ED59
:100EF00050E062E08FEF0E94061361E080E00E9404
:100F0000301761E674E180E00E946E1768EA70E1D4
:100F100080E00E946E1765EB77E080E00E946E171C
:100F20008AED93E00E94DC1B8091D60481114BCCAA
:100F3000089526E040E052EC61E070E08CED94E032
:100F400065D244E650E060E070E08CED94E08CD532
:100F50006EE472E08CED94E0A7D36DE572E08CED69
:100F600094E0A2D360DCBCDFB0C9CF93DF93CDB7F0
:100F7000DEB7ED970FB6F894DEBF0FBECDBF8CE3A2
:100F80008DAFAE01435C5F4FBE016F5F7F4F8AED57
:100F900093E00E9495178823C1F08DADE1E0F0E069
:100FA000EC0FFD1FE80FF11D108262E772E08CED7F
:100FB00094E06FD3BE016F5F7F4F8CED94E069D3F7
:100FC00069ED71E08CED94E06FD3ED960FB6F89477
:100FD000DEBF0FBECDBFDF91CF910895EF92FF929C
:100FE0000F931F93CF93DF93CDB7DEB72C970FB638
:100FF000F894DEBF0FBECDBFEDB6FEB6BC01CE018C
:101000000196F1D523E030E04FE2BE016F5F7F4FE4
:10101000CE010796B8D9CE01019650D58B859C8517
:10102000AC014F5F5F4F2DB73EB7241B350B0FB69A
:10103000F8943EBF0FBE2DBF0DB71EB70F5F1F4FF9
:10104000CC9708F039C020E030E0B801CE01079617
:1010500056D6F80101900020E9F7AF01415051093F
:10106000401B510BB8018AED93E00E942119E091D9
:10107000DA03F091DB030484F585E02D8AED93E03B
:10108000099562E772E08CED94E003D3B8018CED32
:1010900094E0FFD269ED71E08CED94E005D368EC4B
:1010A00071E08CED94E000D38FEF89838A831B82FB
:1010B000CE0101967EDA0FC06AE872E08CED94E012
:1010C000F3D21092D8041092D9048FEF8093DA04EF
:1010D00083E096E0F6D8CE010796F0D40FB6F894E8
:1010E000FEBE0FBEEDBE2C960FB6F894DEBF0FBE4F
:1010F000CDBFDF91CF911F910F91FF90EF90089599
:10110000CF93DF93CDB7DEB768970FB6F894DEBF05
:101110000FBECDBF8CED94E099D0181619060CF0D7
:101120008BC04AE06CED74E0CE014396A3D4BE01BF
:101130006D5E7F4FCE01019656D521E030E04FE243
:10114000BE016F5F7F4FCE010D961DD9CE01019676
:10115000B5D469E473E0CE010D96A0D5882331F0B3
:1011600062EA72E08CED94E09FD260C060ED72E0C4
:10117000CE010D9693D5882309F451C0BE016D5E52
:101180007F4FCE0101962FD522E030E04FE2BE0125
:101190006F5F7F4FCE010796F6D8CE0101968ED4B1
:1011A00066ED72E0CE01079679D5882351F0BE0135
:1011B0006D5E7F4FCE01019616D5CE01019691D975
:1011C00010C06AED72E0CE01079668D5882369F0F9
:1011D000BE016D5E7F4FCE01019605D5CE01019611
:1011E0001ADACE0101966AD416C06EED72E0CE0115
:1011F000079654D5882351F0BE016D5E7F4FCE0116
:101200000196F1D4CE010196E9DEEBCF63EE72E0F8
:101210008CED94E049D2CE01079650D407C062E22B
:1012200073E0CE010D963AD581114FD8CE010D96BF
:1012300045D4CE01439642D468960FB6F894DEBFEB
:101240000FBECDBFDF91CF9108955ACFFC01818DA4
:10125000228D90E0805C9F4F821B91098F739927AC
:101260000895FC01918D828D981731F0828DE80FE1
:10127000F11D858D90E008958FEF9FEF0895FC019B
:10128000918D828D981761F0828DDF01A80FB11DBD
:101290005D968C91928D9F5F9F73928F90E00895E1
:1012A0008FEF9FEF08958FEB9AE0892B41F080E05C
:1012B00090E0892B21F063D181110C9400000895F6
:1012C000FC01848DDF01A80FB11DA35ABF4F2C91E3
:1012D000848D90E001968F739927848FA689B789B2
:1012E0002C93A089B1898C9180648C93938D848D8B
:1012F000981306C00288F389E02D80818F7D80835A
:101300000895CF93DF93EC01888D8823C1F0EA899B
:10131000FB89808185FD05C0A889B9898C9186FDEE
:101320000EC00FB607FCF5CF808185FFF2CFA889EC
:10133000B9898C9185FFEDCFCE01C2DFE8CFDF9177
:10134000CF910895CF92DF92FF920F931F93CF9387
:10135000DF931F92CDB7DEB76C0181E0D6015896BE
:101360008C9358975B969C915B975C968C915C975D
:10137000981307C05096ED91FC915197808185FD9F
:101380002DC0F601038D10E00F5F1F4F0F73112763
:10139000F02EF601848DF81210C00FB607FCF9CFBD
:1013A000D6015096ED91FC915197808185FFF1CF48
:1013B000C601698385DF6981ECCF838DE80FF11D5C
:1013C000E35AFF4F6083D6015B960C935B9752966E
:1013D000ED91FC915397808180620CC0D6015696A6
:1013E000ED91FC91579760835096ED91FC91519748
:1013F00080818064808381E090E00F90DF91CF91C5
:101400001F910F91FF90DF90CF900895BF92CF92E0
:10141000DF92EF92FF92CF93DF93EC016A017B01A1
:10142000B22EE889F98982E08083411581EE580760
:1014300061057105A1F060E079E08DE390E0A7011E
:1014400096010E94481F21503109410951095695C2
:10145000479537952795211580E1380798F0E88959
:10146000F989108260E874E88EE190E0A7019601A6
:101470000E94481F2150310941095109569547954D
:1014800037952795EC85FD853083EE85FF85208394
:10149000188EEC89FD89B082EA89FB8980818061A0
:1014A0008083EA89FB89808188608083EA89FB895F
:1014B000808180688083EA89FB8980818F7D808339
:1014C000DF91CF91FF90EF90DF90CF90BF90089584
:1014D0001F920F920FB60F9211242F938F939F9309
:1014E000EF93FF93E091EC04F091ED048081E091A3
:1014F000F204F091F30482FD12C090818091F50412
:101500008F5F8F732091F604821751F0E091F504FC
:10151000F0E0E452FB4F958F8093F50401C0808189
:10152000FF91EF919F918F912F910F900FBE0F9090
:101530001F9018951F920F920FB60F9211242F93A0
:101540003F934F935F936F937F938F939F93AF934B
:10155000BF93EF93FF938CED94E0B2DEFF91EF9198
:10156000BF91AF919F918F917F916F915F914F91BB
:101570003F912F910F900FBE0F901F9018958CEDFB
:1015800094E064DE21E0892B09F420E0822F0895A5
:101590001092DF041092DE0488EE93E0A0E0B0E049
:1015A0008093E0049093E104A093E204B093E304F9
:1015B0008BE393E09093DD048093DC0485EC90E072
:1015C0009093E9048093E80484EC90E09093EB041A
:1015D0008093EA0480EC90E09093ED048093EC0417
:1015E00081EC90E09093EF048093EE0482EC90E025
:1015F0009093F1048093F00486EC90E09093F304D0
:101600008093F2041092F5041092F6041092F704FD
:101610001092F8040895CF92DF92EF92FF920F9309
:101620001F93CF93DF937C016A01EB0100E010E090
:101630000C151D0571F06991D701ED91FC91019098
:10164000F081E02DC7010995892B19F00F5F1F4F1D
:10165000EFCFC801DF91CF911F910F91FF90EF90D5
:10166000DF90CF9008956115710581F0DB010D9039
:101670000020E9F7AD0141505109461B570BDC0131
:10168000ED91FC910280F381E02D099480E090E0DF
:101690000895E9CFDC01ED91FC910190F081E02DFE
:1016A000099467E473E0DFCF0F931F93CF93DF9329
:1016B000EC01D9DF8C01CE01F4DF800F911FDF91A7
:1016C000CF911F910F9108958F929F92AF92BF92E9
:1016D000CF92DF92EF92FF920F931F93CF93DF93FE
:1016E000CDB7DEB7A1970FB6F894DEBF0FBECDBF62
:1016F0007C01C42EE52FCB01D22E19A221E02D159D
:1017000010F02AE0D22E8E010F5D1F4F8D2C912CF0
:10171000A12CB12C6C2D7E2FA50194010E94481F95
:101720008C2DD29E80191124015011098A3014F495
:10173000805D01C0895CF801808321153105410578
:10174000510521F0C22EE32FCA01E4CFB801C70131
:101750008ADFA1960FB6F894DEBF0FBECDBFDF9132
:10176000CF911F910F91FF90EF90DF90CF90BF909E
:10177000AF909F908F900895CF92DF92EF92FF925B
:101780000F931F93CF93DF93EC016A017B01211527
:10179000310579F4E881F9810190F081E02D642F21
:1017A000DF91CF911F910F91FF90EF90DF90CF903D
:1017B00009942A303105D9F477FF18C06DE26ADF49
:1017C0008C0144275527BA014C195D096E097F0920
:1017D0002AE0CE0179DF800F911FDF91CF911F9119
:1017E0000F91FF90EF90DF90CF9008952AE0B7011E
:1017F000A601CE01DF91CF911F910F91FF90EF9045
:10180000DF90CF9061CF9A01AB01662757FD6095BD
:10181000762FB2CF2115310541F4DC01ED91FC9119
:101820000190F081E02D642F09944ECF9A01462F4C
:1018300050E060E070E0EECF9A01AB0160E070E054
:10184000E9CF4F925F926F927F928F929F92AF9269
:10185000BF92CF92DF92EF92FF920F931F93CF939D
:10186000DF93EC016A017B01B22E9A01AB01C70143
:10187000B6010E94C621882319F06AE473E027C0EC
:1018800026013701E89477F82FEF3FEF4FE75FE746
:10189000C301B2010E94C62181110DC02FEF3FEF9D
:1018A0004FE75FE7C301B2010E94102018161CF435
:1018B0006EE473E00CC02FEF3FEF4FE75FE4C7012A
:1018C000B6010E945F211816A4F462E573E0CE0110
:1018D000DF91CF911F910F91FF90EF90DF90CF900C
:1018E000BF90AF909F908F907F906F905F904F9040
:1018F000BACE2FEF3FEF4FE75FECC701B6010E9472
:10190000102087FDE2CF20E030E0A901C701B60139
:101910000E94102087FF09C06DE2CE01BBDE8C0162
:10192000F7FAF094F7F8F09402C000E010E0A12C70
:1019300060E070E080E09FE3AB1441F020E030E035
:1019400040E251E40E941420A394F6CF9B01AC0125
:10195000C701B6010E94AC1F6B017C010E9481206F
:101960002B013C010E94AD209B01AC01C701B601D7
:101970000E94AB1F6B017C012AE0B301A201CE01E2
:10198000A3DE080F191FBB2031F066E573E0CE011E
:101990006ADE080F191F7B2C772039F120E030E038
:1019A00040E251E4C701B6010E9463216B017C0152
:1019B0000E947C204B01AA2497FCA094BA2C2AE018
:1019C00030E0B501A401CE01D7DE080F191FC50113
:1019D000B4010E94AF209B01AC01C701B6010E9477
:1019E000AB1F6B017C017A94D7CFC801DF91CF91F7
:1019F0001F910F91FF90EF90DF90CF90BF90AF902D
:101A00009F908F907F906F905F904F90089519CF27
:101A10000F931F93CF93DF93EC0140D268877987B0
:101A20008A879B87E881F9810680F781E02DCE01C6
:101A3000099597FF14C032D2088519852A853B8500
:101A4000601B710B820B930B0C811D812E813F81DA
:101A5000601771078207930728F38FEF9FEFDF91DD
:101A6000CF911F910F910895FC01448355836683A4
:101A700077830895EF92FF920F931F93CF93DF9395
:101A8000EC018B01E42E69E473E083D0C801C0DF70
:101A9000FF24E7FCF09497FD09C08E159F0531F0F7
:101AA000682FCE01E9D0C801B3DFF5CFCE01DF91B9
:101AB000CF911F910F91FF90EF900895FC018081CD
:101AC00091810C946222CF93DF93EC0188819981FC
:101AD000009711F00E946222198218821D821C82D6
:101AE0001B821A82DF91CF9108950F931F93CF939A
:101AF000DF93EC018B016F5F7F4F888199810E949A
:101B0000F122009731F0998388831B830A8381E057
:101B100001C080E0DF91CF911F910F910895CF9385
:101B2000DF93EC0188819981892B29F08A819B813F
:101B30008617970758F4CE01D8DF882341F08C81AF
:101B40009D81892B19F4E881F981108281E0DF9170
:101B5000CF910895EF92FF920F931F93CF93DF934E
:101B6000EC017B018A01BA01DADF811103C0CE01E9
:101B7000AADF07C01D830C83B701888199810E9469
:101B8000F923CE01DF91CF911F910F91FF90EF903C
:101B90000895FC0111821082138212821582148230
:101BA0006115710551F0FB0101900020E9F7AF01CB
:101BB00041505109461B570BCDCF0895CF93DF936A
:101BC000EC01FB018617970751F060817181611567
:101BD000710521F044815581BDDF01C074DFCE0164
:101BE000DF91CF910895FC0111821082138212823D
:101BF00015821482E3CFCF93DF93EC016115710559
:101C000059F0FB0101900020E9F7AF014150510963
:101C1000461B570B9FDF01C056DFCE01DF91CF91EE
:101C20000895EF92FF920F931F93CF93DF93EC01F0
:101C30007B010C811D816115710511F480E015C0D7
:101C40004115510589F0040F151FB80168DF88237D
:101C5000A9F3288139818C819D81B701820F931F5F
:101C60000E94F9231D830C8381E0DF91CF911F91A6
:101C70000F91FF90EF900895CF93DF9300D0CDB7F1
:101C8000DEB769831A8241E050E0BE016F5F7F4F8B
:101C9000C8DF0F900F90DF91CF910895FC01248150
:101CA0003581232B31F421E061157105A1F0FB0191
:101CB00008C0FC01808191816115710531F421E03A
:101CC000FC018081882339F005C00E94F02321E0C7
:101CD000892B09F020E0822F0895FC0124813581B1
:101CE0006217730748F480819181009729F0FC0105
:101CF000E60FF71F8081089580E00895EECF0F93DF
:101D00001F93CF93DF93EB0141155105E9F0209725
:101D1000D9F0FC016481758126173707A0F4621B96
:101D2000730B8A01015011096017710708F48B01C8
:101D3000FC0160817181620F731FA801CE010E94B6
:101D40000024C00FD11F1882DF91CF911F910F91F6
:101D50000895BF92CF92DF92EF92FF920F931F935D
:101D6000CF93DF936C017B01EA01890124173507CA
:101D700020F48D2FE901042F182F69E473E0C601C8
:101D800008DFD70114968D919C911597C817D90734
:101D9000C0F48017910708F48C01D701ED91FC91F4
:101DA0001197E00FF11FB08010826D917C916C0F44
:101DB0007D1FC60120DFD701ED91FC91E00FF11FDF
:101DC000B082C601DF91CF911F910F91FF90EF90EC
:101DD000DF90CF90BF900895FC01808191810097A2
:101DE00011F00C94B82360E070E0CB0108950E94DC
:101DF000B4230895B2D0FDDF9CD8C3E5D9E025DA3D
:101E00002097E9F350DAFBCF1F920F920FB60F9293
:101E100011242F933F938F939F93AF93BF93809100
:101E20007A0590917B05A0917C05B0917D0530915C
:101E3000790523E0230F2D3720F40196A11DB11D54
:101E400005C026E8230F0296A11DB11D2093790538
:101E500080937A0590937B05A0937C05B0937D05D4
:101E600080917E0590917F05A0918005B0918105BC
:101E70000196A11DB11D80937E0590937F05A093CF
:101E80008005B0938105BF91AF919F918F913F9154
:101E90002F910F900FBE0F901F9018952FB7F894A9
:101EA00060917A0570917B0580917C0590917D050C
:101EB0002FBF08953FB7F89480917E0590917F05DC
:101EC000A0918005B091810526B5A89B05C02F3F44
:101ED00019F00196A11DB11D3FBF6627782F892FEC
:101EE0009A2F620F711D811D911D42E0660F771FB1
:101EF000881F991F4A95D1F70895CF92DF92EF92EC
:101F0000FF92CF93DF936B017C01D4DFEB01C1140F
:101F1000D104E104F10479F01AD1CCDF6C1B7D0B04
:101F2000683E7340A0F381E0C81AD108E108F108C7
:101F3000C851DC4FECCFDF91CF91FF90EF90DF9055
:101F4000CF9008958230910538F0880F991F880F3F
:101F5000991F05970197F1F70895789484B58260E9
:101F600084BD84B5816084BD85B5826085BD85B53D
:101F7000816085BDEEE6F0E0808181608083E1E8EC
:101F8000F0E0108280818260808380818160808324
:101F9000E0E8F0E0808181608083E1EBF0E0808127
:101FA00084608083E0EBF0E0808181608083EAE7F9
:101FB000F0E0808184608083808182608083808182
:101FC000816080838081806880831092C100089541
:101FD000833081F028F4813099F08230A1F00895A7
:101FE0008730A9F08830B9F08430D1F48091800036
:101FF0008F7D03C0809180008F778093800008954B
:1020000084B58F7702C084B58F7D84BD089580919B
:10201000B0008F7703C08091B0008F7D8093B000B7
:102020000895CF93DF9390E0FC01E458FF4F249193
:10203000FC01E057FF4F8491882349F190E0880F1D
:10204000991FFC01E854FF4FA591B49182559F4F11
:10205000FC01C591D4919FB7611108C0F8948C918F
:10206000209582238C93888182230AC0623051F4A8
:10207000F8948C91322F309583238C938881822B16
:10208000888304C0F8948C91822B8C939FBFDF913E
:10209000CF9108950F931F93CF93DF931F92CDB7E6
:1020A000DEB7282F30E0F901E859FF4F8491F9019C
:1020B000E458FF4F1491F901E057FF4F04910023BA
:1020C000C1F0882319F0698383DF6981E02FF0E094
:1020D000EE0FFF1FE255FF4FA591B4919FB7F89403
:1020E0008C91611103C01095812301C0812B8C93C9
:1020F0009FBF0F90DF91CF911F910F910895CF93C4
:10210000DF93282F30E0F901E859FF4F8491F9015E
:10211000E458FF4FD491F901E057FF4FC491CC230D
:1021200089F0811155DFEC2FF0E0EE0FFF1FEC5529
:10213000FF4FA591B4912C912D2381E090E021F4E3
:1021400080E002C080E090E0DF91CF910895089593
:10215000CF92DF92EF92FF920F931F938091B10580
:10216000882309F442C28091AD059091AE05A091FB
:10217000AF05B091B0058093A9059093AA05A093EF
:10218000AB05B093AC0596DE6093AD057093AE05DC
:102190008093AF059093B0052091A405222319F0F8
:1021A0001092A40522C22091B6053091B705C090C7
:1021B000A905D090AA05E090AB05F090AC0537FDDD
:1021C00015C0DC01CB018C199D09AE09BF09009136
:1021D000A2051091A30520E030E080179107A20727
:1021E000B30720F481E08093A405FFC18091A50589
:1021F0009091A6059601281B390BC901C092A5052F
:10220000D092A605E092A705F092A8052091B60508
:102210003091B7052F3F3F4F81F5813C22E1920776
:1022200008F4E3C11092A10568E270E00E94211F4A
:10223000FB0170939605609395059B01220F331F58
:10224000260F371FC9016AE070E00E94211F7093BA
:10225000A3056093A20530939405209393053093D2
:1022600092052093910553E0EE0FFF1F5A95E1F779
:10227000F0939005E0938F0529C12091B605309128
:10228000B705232BA9F420919305309194052817C5
:10229000390708F497C11092A00510929E0510927C
:1022A0009705109298051092990510929A050EC103
:1022B0002091B6053091B70521303105C9F4209140
:1022C00095053091960567E0629FA001639F500DD0
:1022D00011248417950708F475C16FE0629FA0016F
:1022E000639F500D11244817590708F0EFC06AC1C9
:1022F0002091B6053091B705243931050CF0E6C0C0
:1023000060918E05660F60938E0520919305309144
:1023100094052817390710F06E700FC020919105B1
:102320003091920582179307B8F020918F05309174
:1023300090052817390780F0616060938E058091C1
:10234000B6059091B70564E070E00E94351F8130BA
:10235000910509F0BBC02BC02091950530919605E1
:1023600074E1729FA001739F500D1124841795078B
:1023700008F428C170E5729FA001739F500D1124CD
:102380004817590708F41EC161FD1CC18091B605AC
:102390009091B7058339910509F4A2C08091B605E3
:1023A0009091B7058338910509F00CC199C020912F
:1023B000B6053091B7052A3631053CF58091970571
:1023C00090919805A0919905B0919A05880F991F51
:1023D000AA1FBB1F8093970590939805A09399051A
:1023E000B0939A0520918E052F70213009F46EC0AC
:1023F000243009F0E7C08160809397059093980599
:10240000A0939905B0939A0561C02091B6053091CB
:10241000B7052E3631057CF480918E058F708130A2
:1024200039F0843009F0CEC081E080939B054EC026
:1024300010929B054BC02091B6053091B70522370D
:102440003105ACF420918E052F70213021F040F041
:10245000243041F0B7C010929D0510929C0536C003
:1024600082E090E090939D0580939C052FC0809121
:10247000B6059091B705823891058CF480919E0540
:10248000880F80939E0590918E059F709130F1F09A
:10249000943009F097C0816080939E0517C08091A9
:1024A000B6059091B7058239910584F48091A00515
:1024B000880F8093A00590918E059F70913031F028
:1024C000943009F07FC081608093A0058091B605AB
:1024D0009091B70501969093B7058093B60585C096
:1024E0008091B6059091B7058339910519F481E083
:1024F00080939F05409197055091980560919905AB
:1025000070919A058091840590918505A09186052A
:10251000B0918705481759076A077B0709F055C02E
:1025200090919E0580918B0598134FC090919F05C7
:1025300080918C05981349C09091A00580918D05DC
:10254000981343C090919B058091880598133DC0D6
:1025500020919C0530919D058091890590918A0577
:102560002817390791F58091A1058F5F8093A10508
:102570009091B5058917A8F18091B205811122C00B
:1025800081E08093B205E091B305F091B405E0904D
:102590009505F0909605009197051091980520916A
:1025A000990530919A0540919B0550919C05609149
:1025B0009D0570919E0580919F059091A0050995BC
:1025C0001092B2058FEF9FEF86CF1092A1058CE09D
:1025D000E5E9F5E0A2E8B5E001900D928A95E1F712
:1025E000C2CF1092B7051092B6051F910F91FF90C0
:1025F000EF90DF90CF9008958FEF9FEF9093B70506
:102600008093B60581E08093B10508958093B80565
:102610006093B5055093B4054093B305EDDF809109
:10262000B80587FD06C041E050E068EA70E10C940F
:10263000A41E0895CF93DF93EC0161E08C812ADD25
:102640008D819E817FDC60E08C8124DD8D819E8187
:1026500025E0AC01249FC001259F900D112472DC60
:1026600061E08C8117DD8D819E816CDC60E08C8166
:1026700011DD8D819E81DF91CF9164CCEF920F931C
:102680001F93FC01822F40835183628373832483D1
:102690001683058341E050E001C0440FEA94EAF755
:1026A0004150478361E01F910F91EF90BACCCF93D7
:1026B000DF93EC0161E08C81EDDC8D819E8142DC59
:1026C00060E08C81E7DC2D813E81A901569547951C
:1026D0006AE0629FC001639F900D1124840F951FD3
:1026E000DF91CF912FCCCF93DF93EC0161E08C8110
:1026F000D1DC8D819E8126DC60E08C81CBDC8D81FC
:102700009E8128E2AC01249FC001259F900D1124D9
:10271000DF91CF9117CCCF93DF93EC01662319F0B3
:10272000DF91CF9187CF61E08C81B4DC8D819E8178
:1027300009DC60E08C81AEDC8D819E8103DC61E090
:102740008C81A8DC8D819E81FDDB60E08C81A2DC28
:102750008D819E8125E0AC01249FC001259F900DB5
:102760001124DF91CF91EECB0F931F93CF93DF9383
:102770008C01C9E1D0E0F80140815181628173810F
:102780000C2E04C076956795579547950A94D2F715
:10279000642F6170C801BFDF219768F7DF91CF9187
:1027A0001F910F910895EF92FF920F931F93CF9374
:1027B000DF938C01C3E0D0E0E62EF12CB7010C2EA4
:1027C00002C0759567950A94E2F76170C801A3DFAE
:1027D0002197A0F7DF91CF911F910F91FF90EF907C
:1027E0000895FF920F931F93CF93DF93EC01062F71
:1027F000F42E1F8117FD11C0CE0159DFCE01B4DFC9
:1028000060E0CE0188DF6F2DCE0185DF602FCE0125
:10281000CADFCE0168DF1150EDCFDF91CF911F915C
:102820000F91FF900895CF92DF92EF92FF920F9356
:102830001F93CF93DF93EC01C62EDF80E42EF12CA3
:10284000D7FC36C0CE0133DFCE018EDF60E0CE0193
:1028500062DF61E08C811EDC8D819E8173DB60E034
:102860008C8118DC8D819E816DDB61E08C8112DCB6
:102870008D819E8167DB60E08C810CDC8D819E8187
:1028800061DB6C2DCE018FDF03E010E0C701002E6D
:1028900002C0959587950A94E2F7682F6170CE0182
:1028A0003ADF0150110990F7CE011DDFDA94C8CF4D
:1028B000DF91CF911F910F91FF90EF90DF90CF901C
:1028C0000895CF92DF92EF92FF920F931F93809122
:1028D000DA05882309F47CC18091D6059091D7054B
:1028E000A091D805B091D9058093D2059093D305D6
:1028F000A093D405B093D505DDDA6093D605709327
:10290000D7058093D8059093D9052091CD05222332
:1029100019F01092CD055CC12091DF05C090D20561
:10292000D090D305E090D405F090D50527FD15C0D3
:10293000DC01CB018C199D09AE09BF090091CB05C3
:102940001091CC0520E030E080179107A207B30773
:1029500020F481E08093CD053BC18091CE0590911C
:10296000CF059601281B390BC901C092CE05D09224
:10297000CF05E092D005F092D1052091DF052F3FE1
:1029800009F056C089382EE0920708F421C16FE1A2
:1029900070E00E94211F9B017093CA056093C905D6
:1029A0001092C8051092C4051092C5051092C60574
:1029B0001092C7051092C0051092C1051092C20571
:1029C0001092C305CB01880F991F880F991FEAE069
:1029D000F0E0BF010E94211F7093CC056093CB05EE
:1029E000C90154E0880F991F5A95E1F7BF010E9471
:1029F000211F7093BF056093BE0547E1429FC00150
:102A0000439F900D1124BF010E94211F7093BD05AB
:102A10006093BC0545E2429FC001439F900D112485
:102A2000BF010E94211F7093BB056093BA05CBC004
:102A30002091DF0520330CF05FC04091B905440FB1
:102A40004093B9052091BE053091BF05281739077D
:102A500010F04E7011C02091BC053091BD05821759
:102A6000930708F4A3C02091BA053091BB0528173D
:102A7000390708F49BC041604093B9058091DF0598
:102A8000837887FF03C081508C6F8F5F833009F09C
:102A90009AC02091C0053091C1054091C205509166
:102AA000C305A3E0B0E00E948C1F6093C005709343
:102AB000C1058093C2059093C3052091B9052F707D
:102AC000263061F02A3021F0253009F06FC07BC03C
:102AD000DC01CB010196A11DB11D05C0DC01CB01BC
:102AE0000296A11DB11D8093C0059093C105A093CE
:102AF000C205B093C30567C02091DF05203349F4B8
:102B00002091BE053091BF052817390708F05BC03A
:102B10004DC04091C9055091CA0569E1649F90017B
:102B2000659F300D11248217930708F43FC064E2BB
:102B3000649F9001659F300D112428173907B0F16B
:102B40006091C0057091C1058091C2059091C30547
:102B50000091C4051091C5052091C6053091C705A7
:102B6000601771078207930751F01092C8056093B0
:102B7000C4057093C5058093C6059093C705209141
:102B8000C8052F5F2093C8053091DE05231780F01C
:102B90002091DB0521110AC021E02093DB05E091A3
:102BA000DC05F091DD0509951092DB058FEF0EC075
:102BB0001092C0051092C1051092C2051092C30573
:102BC0001092DF0505C08091DF058F5F8093DF05E0
:102BD0001F910F91FF90EF90DF90CF9008958FEFAE
:102BE0008093DF0581E08093DA0508958093E00506
:102BF0006093DE055093DD054093DC05F0DF8091A6
:102C0000E00587FD06C041E050E061E674E10C9408
:102C1000A41E08952F923F924F925F926F927F92DF
:102C20008F929F92AF92BF92CF92DF92EF92FF92DC
:102C30000F931F93CF93DF93982EE9016F7077273F
:102C40001CE0C12CD12C7601E3E04E2E512C612CDE
:102C5000712C32E0CC0CDD1CEE1CFF1C3A95D1F738
:102C6000CB01BA01A30192010E94481FFA01C62AB2
:102C7000D72AE82AF92AA901BF01115051F7077094
:102C800081E0282E01C0220C0A95EAF78E01000F80
:102C9000111F0C0F1D1F8FE18C9F50018D9FB00CD9
:102CA0001124312C260137018CE0882ED301C2017A
:102CB00083709927AA27BB2781309105A105B1050B
:102CC00021F178F00297A105B10509F032C061E069
:102CD000892DE0D9CE0136D960E0892DDBD9C80134
:102CE0001DC061E0892DD6D9CE012CD960E0892D97
:102CF000D1D9C80127D961E0892DCCD9CE0122D9FB
:102D000060E0892DC7D9C80113C061E0892DC2D9FF
:102D1000C80118D960E0892DBDD9CE0113D961E071
:102D2000892DB8D9C8010ED960E0892DB3D9CE015B
:102D300009D992E076946794579447949A95D1F77D
:102D40008A9409F0B3CF61E0892DA4D9CE01FAD8D5
:102D500060E0892D9FD9C501F5D83394321408F469
:102D6000A1CFDF91CF911F910F91FF90EF90DF9056
:102D7000CF90BF90AF909F908F907F906F905F901B
:102D80004F903F902F900895CF93DF93C091E70528
:102D9000D091E805209739F0EA81FB8109950990E7
:102DA000D881C02DF7CFDF91CF910895CF93DF93D6
:102DB000C091E905D091EA05209739F0EA81FB81BD
:102DC00009950990D881C02DF7CFDF91CF91089553
:102DD000CF93DF93C091EB05D091EC05209739F0AC
:102DE000EA81FB8109950990D881C02DF7CFDF9149
:102DF000CF910895CF93DF93C091ED05D091EE056B
:102E0000209739F0EA81FB8109950990D881C02D7E
:102E1000F7CFDF91CF910895CF93DF93C091EF0566
:102E2000D091F005209739F0EA81FB81099509904E
:102E3000D881C02DF7CFDF91CF910895CF93DF9345
:102E4000C091F105D091F205209739F0EA81FB811C
:102E500009950990D881C02DF7CFDF91CF910895C2
:102E6000E82FF0E0EF51FA4F608308958230D1F0FF
:102E700028F4882349F0813071F00895843001F1FD
:102E8000C0F0853021F108954091E10550E064ECF7
:102E900076E180E022C04091E20550E066ED76E107
:102EA00081E01BC04091E30550E068EE76E182E0EE
:102EB00014C04091E40550E06AEF76E183E00DC074
:102EC0004091E50550E06CE077E184E006C0409178
:102ED000E60550E06EE177E185E036C7DF92EF92DC
:102EE000FF920F931F93CF93DF93D82E7B01C82FB0
:102EF000D0E0CC0FDD1FC951DA4F0881198184E081
:102F000090E00E94CA21FC0199838883F382E282C7
:102F1000118300838D2DDF91CF911F910F91FF9031
:102F2000EF90DF90A3CF8CE30895DF92EF92FF92B2
:102F30000F931F93CF93DF93EC017B018A01E8810C
:102F4000F9810280F381E02D0995D82E8823D1F0F4
:102F5000E114F104B1F00115110599F0FE01E759F2
:102F6000FF4F90819750F8018081981708F4908363
:102F7000F801408150E0BE01665D7F4FC7010E94AD
:102F8000E7231D8E8D2DDF91CF911F910F91FF9023
:102F9000EF90DF900895AF92BF92CF92DF92EF92C1
:102FA0000F93CF93DF93CDB7DEB72A970FB6F89480
:102FB000DEBF0FBECDBF6C015B012A874987EAD413
:102FC0008CE593E0F60191838083B68AA58A4985D2
:102FD000478B2A85208F018FE38E88E0EAE0F1E0BD
:102FE000DE01119601900D928A95E1F7D601A35961
:102FF000BF4F88E0FE01319601900D928A95E1F76E
:103000002A960FB6F894DEBF0FBECDBFDF91CF91E9
:103010000F91EF90DF90CF90BF90AF9008952F92D7
:103020003F924F925F926F927F928F929F92AF9258
:10303000BF92CF92DF92EF92FF920F931F93CF93A5
:10304000DF9300D000D01F92CDB7DEB71A013D83C9
:103050002C836115710511F4F90141C06B01E12C5C
:10306000F12C83E0CC0CDD1CEE1CFF1C8A95D1F703
:1030700004EC10E0F1E0FB83812C94E2992E94EFB4
:10308000A92EB12C2A01612C712C42E050E0B8012C
:10309000CE0101960E94DE2329813A8140E050E072
:1030A000C501B401F5D6CA01B901A7019601F0D650
:1030B000223031054105510528F024153505460516
:1030C000570540F08B818F5F8B830E5F1F4F8730DA
:1030D000E1F609C0EB81E63059F4EC81FD81118203
:1030E000108280E012C02230310541055105A8F35D
:1030F000C101A0E0B0E082179307A407B50768F309
:10310000EC81FD81318320838B810F900F900F9094
:103110000F900F90DF91CF911F910F91FF90EF9043
:10312000DF90CF90BF90AF909F908F907F906F90E7
:103130005F904F903F902F900895CF93DF9300D0F2
:10314000CDB7DEB7FC01658976899E012F5F3F4FC1
:103150004FEF5FEF64DF8823A9F01092800098E0C2
:103160009093810090918100982B909381008981A8
:103170009A81909389008093880080916F0082608B
:1031800080936F000F900F90DF91CF910895CF93B0
:10319000DF93EC018F890E947F1021E0892B09F4D5
:1031A00020E08A8D8227DF91CF910895FC01808DE8
:1031B0000C944A10FC01238D6227818D0C944A10D7
:1031C000CF93DF93EC018A819B81029751F060E0FD
:1031D000CE01F0DF60E0CE01E9DF82E090E09B838A
:1031E0008A83DF91CF910895CF93DF93EC018A8199
:1031F0009B81049751F060E0CE01DCDF60E0CE01FE
:10320000D5DF84E090E09B838A83DF91CF9108959E
:10321000CF93DF93EC018A819B81039779F0FE01C4
:10322000E659FF4F1082319610823196108261E08C
:10323000CE01C0DF83E090E09B838A83DF91CF9152
:1032400008956F927F929F92AF92BF92CF92DF923A
:10325000EF92FF920F931F93CF93DF9300D0CDB7E0
:10326000DEB73C01B62E4D3308F011C17C0125E7D5
:10327000E20EF11CDC01ED91FC910484F585E02D5A
:103280004A83798309954A8117E0140F612F8FEFE4
:103290009FEFB3D2E12FF0E0A4E0F595E795AA9572
:1032A000E1F7EC57FC4F2081F70120831F70E12FDD
:1032B000F0E0EC57FC4F2081F301EA58FF4F2083E8
:1032C000D3011A966C9199D2F3012285E22FF0E096
:1032D000B4E0F595E795BA95E1F7EC57FC4F3081EE
:1032E000D301A958BF4F3C932F70E22FF0E0EC5769
:1032F000FC4F2081F301E858FF4F2083D3011B9638
:103300006C917BD2F3012385E22FF0E014E0F59578
:10331000E7951A95E1F7EC57FC4F3081D301A75898
:10332000BF4F3C932F70E22FF0E0EC57FC4F208111
:10333000F301E658FF4F2083D3011C966C915DD2B8
:10334000F3012485E22FF0E004E0F595E7950A9576
:10335000E1F7EC57FC4F3081D301A558BF4F3C93A8
:103360002F70E22FF0E0EC57FC4F2081F301E4587E
:10337000FF4F2083D3011D966C913FD2F301258529
:10338000E22FF0E034E0F595E7953A95E1F7EC5758
:10339000FC4F3081D301A358BF4F3C932F70E22FD5
:1033A000F0E0EC57FC4F2081F301E258FF4F2083FF
:1033B0009B2C6301F0E8CF0ED11C0B2D7981172FC8
:1033C0004A81202F2919241710F55801D8016C9132
:1033D0004A8313D2F6013197D8012D918D01A22F86
:1033E000B0E074E0B595A7957A95E1F7AC57BC4F7E
:1033F0002C912083D501EC91EF70F0E0EC57FC4F5D
:103400002081F6012083F2E0CF0ED11CD9CF50E00D
:103410004B5F5F4F440F551F80959095E40EF51E4E
:10342000DC0134E0B695A7953A95E1F7AF70BB277C
:10343000AC57BC4F2C91D7012C93FC01EF70FF27A8
:10344000EC57FC4F208111962C931197FC01EF2F24
:10345000FF27E295EF70EC57FC4F208112962C93DA
:103460001297E92FFF27EF70FF27EC57FC4F808161
:1034700013968C93F301E550FF4F445F4083C301E3
:10348000C7DE7092F4056092F30581E001C080E030
:103490000F900F90DF91CF911F910F91FF90EF90C0
:1034A000DF90CF90BF90AF909F907F906F900895E6
:1034B000862F86958695887098E0980F891749F031
:1034C000E82FF0E0EC57FC4F2081621719F08F5F76
:1034D000F5CF80E00895FF920F931F93CF93DF9372
:1034E000EC01F12C8FEF9FEF8E0107591F4FF80170
:1034F0002081F21638F4FE01EF0DF11D65A17DD19A
:10350000F394F5CF883B904F39F08F8598890196D9
:10351000988B8F871D8E19C08EA18E838FA18F836C
:1035200088A5888789A589878D81811107C09E819B
:103530008C81981719F08E818F3F39F489899A8987
:1035400001969A8B898B81E08D8FDF91CF911F91AE
:103550000F91FF900895CF93DF93EC018A819B81B7
:10356000039751F0CE0140DE8C8D882319F0CE01F7
:10357000B2DF1C8E8D8D01C080E0DF91CF91089568
:103580001F93CF93DF93EC0102DE882319F09F8D08
:103590009F5F9F8F9E8D891771F098A1903518F4C9
:1035A0002BE030E002C02DE130E098A1290F311D61
:1035B00028A38E8F03C088A18C5E88A388A1803A3F
:1035C00008F46BC08AA19BA1969587959BA38AA3BB
:1035D0008F8D853028F08AA19BA198609BA38AA338
:1035E00088A1805A88A31F8E89A1882309F443C02B
:1035F0008CA18F5F8CA38C3008F44FC06AA17BA193
:103600006F73CE0155DF182F6AA17BA146E0769536
:1036100067954A95E1F7CE014BDF90E1199F900144
:103620001124822BBE0167597F4FFB019081DE017F
:10363000A859BF4F9923A9F0FB01908121E0290FE0
:103640002083AE01490F511DFA0185A3FB01908132
:103650008C91981770F019A281E08C8FCE01B0DDAB
:1036600008C08C939C91973090F09C91943478F49E
:10367000E3CF1CA212C08AA19BA188339B4069F4AE
:1036800081E089A31CA2C759DF4F188206C019A286
:103690008F8598890196988B8F87DF91CF911F91A5
:1036A0000895CF92DF92EF92FF920F931F93CF93E3
:1036B000DF93EC018C0104591F4FF801808191E0E8
:1036C000980F9083811134C06E01FAE6CF0ED11CA1
:1036D000F6018081EF56FF4F9081891740F0CE01AF
:1036E0006FDD8B899C8901969C8B8B8B21C0FE01A1
:1036F000E80FF11DE359FF4F608170E07E01FBE6AA
:10370000EF0EF11CF701808191E0980F908302C0C9
:10371000759567958A95E2F76170CE0147DDF701EF
:103720008081863028F01082F60180818F5F80834F
:10373000F8018081883008F01082DF91CF911F91CD
:103740000F91FF90EF90DF90CF900895FC012281C0
:1037500033812430310509F413CFFC0122813381F8
:103760002330310509F49DCF08951F920F920FB6B3
:103770000F9211242F933F934F935F936F937F93F7
:103780008F939F93AF93BF93EF93FF938091F30534
:103790009091F405DBDFFF91EF91BF91AF919F9185
:1037A0008F917F916F915F914F913F912F910F90EA
:1037B0000FBE0F901F9018951F93CF93DF93EC01CE
:1037C0003AD0182F8823A1F0D093F405C093F305C5
:1037D00061E0888D0E94111060E08F890E941110B5
:1037E00061E0898D0E941110CE01EADCCE01A5DCDA
:1037F000812FDF91CF911F910895682780E1689F05
:1038000090011124622770E0362F2227492F50E0C3
:10381000242B352BCB01F4E095958795FA95E1F7AC
:1038200028273927CB01A3E0880F991FAA95E1F734
:1038300082279327089581E00895FC016583089508
:10384000FC0164830895FC0162870895FC0163878D
:103850000895FC01648708954095FC012585422365
:10386000462B45870895FC0186810895FC018781D8
:103870000895FC0180850895FC018185089580E00C
:103880000895CF93DF93EC01E881F9810280F38101
:10389000E02DCE010995811103C00E94A710F4CF3D
:1038A000DF91CF910895CF93DF93EC018A819B81C3
:1038B000039719F40E94A710F9CF81E0DF91CF910F
:1038C00008958F929F92AF92BF92CF92DF92EF9224
:1038D000FF92CF93DF93EC016B010E944E0F4B01DF
:1038E0005C01E12CF12C0E944E0F681979098A09BC
:1038F0009B096C157D058E059F0560F4E881F981B3
:103900000280F381E02DCE010995811105C00E944E
:10391000A710E9CF80E001C081E0DF91CF91FF9057
:10392000EF90DF90CF90BF90AF909F908F900895D1
:103930008F929F92AF92BF92CF92DF92EF92FF92BF
:10394000CF93DF93EC016B010E944E0F4B015C01A2
:10395000E12CF12C0E944E0F681979098A099B0904
:103960006C157D058E059F0538F48A819B81039730
:1039700029F40E94A710EECF80E001C081E0DF9122
:10398000CF91FF90EF90DF90CF90BF90AF909F903E
:103990008F900895FC0188E993E0918380831382DE
:1039A00012828FEF84838287838714861586108A1C
:1039B0001786128A118A148A138A08958F929F9209
:1039C000AF92BF92EF92FF920F931F93CF93DF932B
:1039D000EC01188219821A824423A9F1E0E0F0E098
:1039E0008B010A5F1F4F7B0189E0E80EF11C842EDA
:1039F000912CA12CB12CD801AE0FBF1F2C91D70157
:103A0000AE0FBF1F6C912223D1F06623C1F030E0CE
:103A100040E050E02F5F3F4F4F4F5F4F70E080E03E
:103A200090E06F5F7F4F8F4F9F4FFCD19B01AC01A8
:103A3000C501B401F7D1DE01AE0FBF1F8C933196E3
:103A4000E330F105C1F6CE01DF91CF911F910F91C7
:103A5000FF90EF90BF90AF909F908F900895CF927E
:103A6000DF92EF92FF92CF93DF93EC018091F90503
:103A70009091FA059C012F5F3F4F3093FA052093F8
:103A8000F9058617970794F10E944E0F9B01AC0130
:103A9000E091F905F091FA0588EE93E0E89FB00116
:103AA000E99F700DF89F700D1124882777FD809590
:103AB000982FC090F505D090F605E090F705F090AE
:103AC000F8052C193D094E095F09E2D13A83298393
:103AD0001092FA051092F9050E944E0F6093F505B9
:103AE0007093F6058093F7059093F805DF91CF91D9
:103AF000FF90EF90DF90CF9008958F929F92AF92BA
:103B0000BF92EF92FF920F931F93CF93DF9300D05A
:103B10001F92CDB7DEB78C01F62EF8018381948118
:103B2000A581B681892B8A2B8B2BD1F00E945A0F4D
:103B30008090FB059090FC05A090FD05B090FE05DF
:103B4000681979098A099B09D80113968D909D906F
:103B5000AD90BC901697681579058A059B05E8F22B
:103B60000E945A0F6093FB057093FC058093FD053E
:103B70009093FE05D8011B96ED91FC911C97309710
:103B800051F0D80117964D915D916D917C911A97E6
:103B90008F2D0995F82EA0900106B0900206A11471
:103BA000B10449F1F501E484D80111968D919C91FD
:103BB00012978436910508F41486D501ED91FC9195
:103BC000828093804F2DB501CE010196F7DEF5017D
:103BD00045855685628173819E012F5F3F4FC501E8
:103BE000F4010995D5011C96EC921C971496AD90A2
:103BF000BC901597D4CF69E170E0C80130DF0F9019
:103C00000F900F90DF91CF911F910F91FF90EF9048
:103C1000BF90AF909F908F900895CF92DF92EF92D8
:103C2000FF920F931F93CF93DF93EC014423E9F0AE
:103C30006115710571F19B0140E050E060E472E4B0
:103C40008FE090E047D1CB80DC80ED80FE80890161
:103C50009A010C151D052E053F0510F497018601EC
:103C60000B831C832D833E8314C06115710569F09D
:103C70009B0140E050E060E472E48FE090E02AD1E4
:103C80002B833C834D835E8304C01B821C821D8278
:103C90001E82DF91CF911F910F91FF90EF90DF90E7
:103CA000CF900895CF92DF92EF92FF920F931F93E0
:103CB000CF93DF93EC016B018A0179011216130691
:103CC0001CF07A0100E010E0E881F9810480F581C0
:103CD000E02DCE010995C801880F991F800F911F13
:103CE0008C0D9D1D9B838A83FE86ED86E881F9817C
:103CF0000284F385E02DCE01099541E0BC0183E00B
:103D000096E08BDFCE01DF91CF911F910F91FF9055
:103D1000EF90DF90CF9008958FEF8093030610927D
:103D200005061092040610920F0610920E068FEFF1
:103D30009FEFDC0180930A0690930B06A0930C067C
:103D4000B0930D06089508958230E8F4E82FF0E06E
:103D5000EE0FFF1FEA5FFE4F71836083813041F0F9
:103D6000809169008C7F842B80936900E89A089584
:103D700080916900440F551F440F551F837F842B8A
:103D800080936900E99A08951F920F920FB60F92DF
:103D900011242F933F934F935F936F937F938F9350
:103DA0009F93AF93BF93EF93FF93E0910601F09140
:103DB00007010995FF91EF91BF91AF919F918F916D
:103DC0007F916F915F914F913F912F910F900FBE17
:103DD0000F901F9018951F920F920FB60F921124FB
:103DE0002F933F934F935F936F937F938F939F9303
:103DF000AF93BF93EF93FF93E0910801F091090116
:103E00000995FF91EF91BF91AF919F918F917F9114
:103E10006F915F914F913F912F910F900FBE0F9037
:103E20001F901895DB018F939F9376D0BF91AF9130
:103E3000A29F800D911DA39F900DB29F900D112404
:103E40000895AA1BBB1B51E107C0AA1FBB1FA617E1
:103E5000B70710F0A61BB70B881F991F5A95A9F733
:103E600080959095BC01CD01089597FB072E16F41F
:103E7000009406D077FD08D0E4DF07FC05D03EF4BF
:103E8000909581959F4F0895709561957F4F089506
:103E9000A1E21A2EAA1BBB1BFD010DC0AA1FBB1F4E
:103EA000EE1FFF1FA217B307E407F50720F0A21BC0
:103EB000B30BE40BF50B661F771F881F991F1A942D
:103EC00069F760957095809590959B01AC01BD0157
:103ED000CF010895052E97FB16F400940FD057FDDF
:103EE00005D0D6DF07FC02D046F408C050954095B7
:103EF000309521953F4F4F4F5F4F08959095809596
:103F0000709561957F4F8F4F9F4F089515D0B7FFE4
:103F10000895821B930B08950FD0A59F900DB49F19
:103F2000900DA49F800D911D11240895EE0FFF1F89
:103F30000590F491E02D0994A29FB001B39FC001B8
:103F4000A39F700D811D1124911DB29F700D811DC5
:103F50001124911D08955058BB27AA270ED075C172
:103F600066D130F06BD120F031F49F3F11F41EF494
:103F70005BC10EF4E095E7FB51C1E92F77D180F3E7
:103F8000BA17620773078407950718F071F49EF556
:103F90008FC10EF4E0950B2EBA2FA02D0B01B901A5
:103FA00090010C01CA01A0011124FF27591B99F0AF
:103FB000593F50F4503E68F11A16F040A22F232FBB
:103FC000342F4427585FF3CF469537952795A7950B
:103FD000F0405395C9F77EF41F16BA0B620B730BB2
:103FE000840BBAF09150A1F0FF0FBB1F661F771F23
:103FF000881FC2F70EC0BA0F621F731F841F48F4D8
:10400000879577956795B795F7959E3F08F0B3CF5D
:104010009395880F08F09927EE0F97958795089547
:10402000D9D008F481E008950CD00FC107D140F039
:10403000FED030F021F45F3F19F0F0C0511139C1CA
:10404000F3C014D198F39923C9F35523B1F3951B09
:10405000550BBB27AA2762177307840738F09F5FA9
:104060005F4F220F331F441FAA1FA9F333D00E2E18
:104070003AF0E0E830D091505040E695001CCAF785
:1040800029D0FE2F27D0660F771F881FBB1F26174A
:1040900037074807AB07B0E809F0BB0B802DBF011D
:1040A000FF2793585F4F2AF09E3F510568F0B6C036
:1040B00000C15F3FECF3983EDCF3869577956795FA
:1040C000B795F7959F5FC9F7880F911D96958795CE
:1040D00097F90895E1E0660F771F881FBB1F6217ED
:1040E00073078407BA0720F0621B730B840BBA0BAB
:1040F000EE1F88F7E095089504D06894B111D9C0F7
:104100000895BCD088F09F5790F0B92F9927B751E8
:10411000A0F0D1F0660F771F881F991F1AF0BA958B
:10412000C9F712C0B13081F0C3D0B1E00895C0C06A
:10413000672F782F8827B85F39F0B93FCCF3869581
:1041400077956795B395D9F73EF4909580957095DE
:1041500061957F4F8F4F9F4F0895E89409C097FB5B
:104160003EF490958095709561957F4F8F4F9F4F4E
:104170009923A9F0F92F96E9BB279395F695879592
:1041800077956795B795F111F8CFFAF4BB0F11F455
:1041900060FF1BC06F5F7F4F8F4F9F4F16C08823FC
:1041A00011F096E911C0772321F09EE8872F762F32
:1041B00005C0662371F096E8862F70E060E02AF073
:1041C0009A95660F771F881FDAF7880F969587955F
:1041D00097F90895990F0008550FAA0BE0E8FEEF34
:1041E00016161706E807F907C0F012161306E407BB
:1041F000F50798F0621B730B840B950B39F40A26B4
:1042000061F0232B242B252B21F408950A2609F491
:10421000A140A6958FEF811D811D089597F99F6795
:1042200080E870E060E008959FEF80EC089500243E
:104230000A941616170618060906089500240A940B
:1042400012161306140605060895092E0394000C91
:1042500011F4882352F0BB0F40F4BF2B11F460FF20
:1042600004C06F5F7F4F8F4F9F4F089557FD905849
:10427000440F551F59F05F3F71F04795880F97FB2A
:10428000991F61F09F3F79F08795089512161306E4
:104290001406551FF2CF4695F1DF08C01616170613
:1042A0001806991FF1CF8695710561050894089548
:1042B000E894BB2766277727CB0197F908958ADF13
:1042C00008F48FEF08950BD0C0CFB1DF28F0B6DF30
:1042D00018F0952309F0A2CFA7CF1124EACFC6DFAB
:1042E000A0F3959FD1F3950F50E0551F629FF00109
:1042F000729FBB27F00DB11D639FAA27F00DB11D62
:10430000AA1F649F6627B00DA11D661F829F2227EA
:10431000B00DA11D621F739FB00DA11D621F839F71
:10432000A00D611D221F749F3327A00D611D231F47
:10433000849F600D211D822F762F6A2F11249F5795
:1043400050408AF0E1F088234AF0EE0FFF1FBB1FB8
:10435000661F771F881F91505040A9F79E3F510557
:1043600070F05CCFA6CF5F3FECF3983EDCF3869510
:1043700077956795B795F795E7959F5FC1F7FE2B02
:10438000880F911D9695879597F9089523DF880BDF
:10439000990B0895CF93DF938230910510F482E05A
:1043A00090E0E0911206F091130620E030E0A0E0EA
:1043B000B0E0309739F14081518148175907B8F082
:1043C0004817590771F482819381109729F0139649
:1043D0009C938E9312972CC0909313068093120691
:1043E00027C02115310531F04217530718F0A901F4
:1043F000DB0101C0EF019A01BD01DF010280F38101
:10440000E02DD7CF21153105F9F0281B390B2430C9
:10441000310580F48A819B816115710521F0FB01D2
:104420009383828304C09093130680931206FE0147
:10443000329644C0FE01E20FF31F81939193225004
:104440003109398328833AC0209110063091110632
:10445000232B41F420910201309103013093110686
:1044600020931006209100013091010121153105A2
:1044700041F42DB73EB74091040150910501241B32
:10448000350BE0911006F0911106E217F307A0F446
:104490002E1B3F0B2817390778F0AC014E5F5F4F9A
:1044A0002417350748F04E0F5F1F509311064093B5
:1044B00010068193919302C0E0E0F0E0CF01DF911C
:1044C000CF910895CF93DF93009709F487C0FC0143
:1044D000329713821282C0911206D0911306209750
:1044E00081F420813181280F391F8091100690912D
:1044F00011068217930779F5F0931106E0931006E1
:104500006DC0DE0120E030E0AE17BF0750F4129618
:104510004D915C9113979D014115510509F1DA0107
:10452000F3CFB383A28340815181840F951F8A17F3
:104530009B0771F48D919C911197840F951F0296A2
:104540009183808312968D919C911397938382839C
:104550002115310529F4F0931306E09312063EC0AD
:10456000D9011396FC93EE9312974D915D91A40F90
:10457000B51FEA17FB0779F480819181840F951F9D
:104580000296D90111969C938E9382819381139602
:104590009C938E931297E0E0F0E08A819B810097D4
:1045A00019F0FE01EC01F9CFCE0102962881398184
:1045B000820F931F2091100630911106281739079A
:1045C00069F4309729F4109213061092120602C073
:1045D00013821282D0931106C0931006DF91CF91FF
:1045E0000895A0E0B0E0E6EFF2E232C1EC01CB01C9
:1045F000209711F4CFDEB4C0FE01E60FF71F9E0135
:1046000022503109E217F30708F4A8C0D9010D912F
:104610001C91119706171707B0F00530110508F423
:104620009BC0A801445051094617570708F494C08D
:1046300002501109061B170B019311936D937C9384
:10464000CF0140DF89C05B01A01AB10A4E01800E84
:10465000911EA0911206B0911306612C712C60E09E
:1046600070E0109709F449C0A815B905C9F5ED9097
:10467000FC901197670142E0C40ED11CCA14DB0400
:1046800078F147018A189B08640142E0C40ED11CEE
:104690001296BC9012971396AC91B5E0CB16D1044C
:1046A00040F0B282A38391828082D9018D939C9342
:1046B00009C00E5F1F4F0E0D1F1DF90111830083EE
:1046C000EB2DFA2F6115710531F0DB011396FC9388
:1046D000EE93129741C0F0931306E09312063CC08C
:1046E0006D917C9111976616770608F43B01BD0128
:1046F00012960D90BC91A02DB4CF609110067091D0
:10470000110668157905E9F468167906D0F4409128
:104710000001509101014115510541F44DB75EB7BB
:104720006091040170910501461B570BE417F507D2
:10473000A8F4F0931106E0931006F90191838083A9
:104740000BC028DE7C01009749F0A801BE013FD0D4
:10475000CE01B8DEC70104C0CE0102C080E090E007
:10476000CDB7DEB7EEE090C081E090E0F894A3C052
:104770001F93FC0199278827BC01E89411911032FE
:10478000E9F3193010F01E30C8F31B3249F01D3226
:1047900041F4689405C043D0610F711D811D911DC6
:1047A000119110531A30B8F33EF49095809570959E
:1047B00061957F4F8F4F9F4F1F910895FB01DC0143
:1047C00002C005900D9241505040D8F70895FB016A
:1047D000DC0102C001900D9241505040D8F708957D
:1047E000FB01DC018D91019080190110D9F3990B27
:1047F0000895FB01DC0101900D920020E1F708957E
:10480000FB01DC014150504048F001900D92002026
:10481000C9F701C01D9241505040E0F70895592F4B
:10482000482F372F262F660F771F881F991F660F77
:10483000771F881F991F620F731F841F951F660FB4
:10484000771F881F991F08952F923F924F925F9272
:104850006F927F928F929F92AF92BF92CF92DF9290
:10486000EF92FF920F931F93CF93DF93CDB7DEB7F5
:10487000CA1BDB0B0FB6F894DEBF0FBECDBF099489
:104880002A88398848885F846E847D848C849B84E0
:10489000AA84B984C884DF80EE80FD800C811B81EE
:1048A000AA81B981CE0FD11D0FB6F894DEBF0FBE1D
:0A48B000CDBFED010895F894FFCF8D
:1048BA00000014062000A31EA31E2A2A2A2A2A2A36
:1048CA00382C7B226461746122203A20222F726183
:1048DA0064696F2F6F6C642F007B2264617461229C
:1048EA00203A20222F726164696F2F6E65772F003C
:1048FA006F6E007B2266696C65223A227261646976
:10490A006F3273657269616C2E696E6F222C227523
:10491A00726C223A22736D61727475726C2E6974AC
:10492A002F726164696F3273657269616C222C221D
:10493A00766572223A2200222C2270696E73223A1C
:10494A002274783A003B72783A003B6C65643A000C
:10495A00222C227374617465223A2274783A007B9D
:10496A0022657272223A225278206E6F7420706C1D
:10497A007567676564227D007B22726574223A221C
:10498A002F726164696F2F4F4B227D002F72616411
:10499A00696F2F6E65772F313233342F302F6F6660
:1049AA0066007B22657272223A225478206E6F74F6
:1049BA0020706C7567676564227D007265640067A4
:1049CA007265656E00626C7565007768697465006A
:1049DA007B22657272223A22494E56414C49442042
:1049EA00434F4C4F52203A207265642C67726565BA
:1049FA006E2C77686974652C6F6666227D007B224F
:104A0A00726574223A22496E6974227D007B227291
:104A1A006574223A225465737420526164696F2264
:104A2A007D007B226461746122203A20222F726108
:104A3A0064696F2F746578742F007B226572722205
:104A4A003A225465787420746F6F206C6F6E6722F7
:104A5A007D007B22657272223A22494E56414C49A8
:104A6A004420434F4D4D414E44202D202F696E6600
:104A7A006F2C2F726164696F2C2F6C6564227D0024
:104A8A00726164696F006F6C64006E6577007465AB
:104A9A007874007B22657272223A22494E56414C42
:104AAA0049442050524F544F434F4C202D202F72CF
:104ABA006164696F2F6F6C642C2F726164696F2F48
:104ACA006E65772C2F726164696F2F746578742212
:104ADA007D00696E666F00000000002D0738079B95
:104AEA000043079400980000000000A2090B0B265F
:104AFA00093F09310981090D0A006E616E00696E6C
:104B0A0066006F7666002E0000000000DC1BAB1A00
:104B1A00951721199317411C531C981C611C201CC2
:104B2A00231C261C291C2C1C1D1C331C361C391C3E
:104B3A003C1C3F1C0D0E131516191A1C2325262979
:104B4A002A2C3234000000001B1CF70EF70EF70E59
:104B5A00F70E411C531C981C611C201C231C261C8C
:104B6A00291C2C1C1D1C331C361C391C3C1C3F1CCC
:00000001FF
