:100000006AC000000C94B21E0C94DF1E8CC000006D
:100010008AC0000088C0000086C0000084C00000C4
:1000200082C0000080C000007EC000000C94C41B91
:100030007AC0000078C0000076C0000074C00000E4
:100040000C94130F70C000000C94680A0C949A0A68
:100050006AC0000068C0000066C0000064C0000004
:1000600062C0000060C00000000000080002010043
:100070000003040700000000000000000102040863
:100080001020408001020408102001020408102002
:10009000040404040404040402020202020203032E
:1000A00003030303000000002300260029000000D2
:1000B0000000250028002B0000000000240027007D
:1000C0002A00000001000800400000010004050DA6
:1000D0006107C80A8A1E11241FBECFEFD8E0DEBF19
:1000E000CDBF13E0A0E0B1E0EEEAF8E402C0059075
:1000F0000D92AA3BB107D9F726E0AAEBB3E001C005
:100100001D92AC30B207E1F710E0C6EDD0E004C0BC
:100110002297FE010E94921FC03DD107C9F70E949D
:10012000090F0C9455246CCFFC01858596850895A4
:1001300080E991E00895549A0895CF92DF92EF926A
:10014000FF92CF93DF936B017C01EA016EE071E0D7
:1001500086ED94E00E94490B2AE030E0B701A60149
:1001600086ED94E00E94190CCE01805991408536AD
:10017000910568F063E271E086ED94E00E94490B1E
:100180004AE050E0BE0186ED94E00E942B0C65ED44
:1001900071E086ED94E0DF91CF91FF90EF90DF90DA
:1001A000CF900C94630BCF92DF92EF92FF920F935C
:1001B0001F93CF93DF93CDB7DEB72C970FB6F8948C
:1001C000DEBF0FBECDBFE982FA820B831C832D8375
:1001D0003E83588769877A879C8709811A81CB80FB
:1001E000DC80ED80FE8065E271E086ED94E00E94A7
:1001F000490B2AE030E0B701A60186ED94E00E94A9
:10020000190C63E271E086ED94E00E94490B4AE02C
:1002100050E06A8586ED94E00E94250C63E271E06F
:1002200086ED94E00E94490B88859985813091057F
:1002300041F08230910561F0892B89F46AEE71E01A
:1002400002C06CE371E086ED94E00E94490B07C0A8
:100250004AE050E06C8586ED94E00E94250CC801D0
:100260008E5B91098937910568F063E271E086ED54
:1002700094E00E94490B4AE050E0B80186ED94E01A
:100280000E942B0C65ED71E086ED94E00E94630BFB
:1002900082EDC81684E0D806E104F10419F481E087
:1002A0008093D1042C960FB6F894DEBF0FBECDBF5D
:1002B000DF91CF911F910F91FF90EF90DF90CF9042
:1002C0000895FC0160810C948C1D6FE371E086ED54
:1002D00094E00E94490B22E030E049E25CE56FE0E7
:1002E0007FE386ED94E00E94160D63E871E086EDF1
:1002F00094E00E94490B4AE050E06AE070E086ED2D
:1003000094E00E94120C61E971E086ED94E00E9495
:10031000490B4AE050E062E070E086ED94E00E9414
:10032000120C66E971E086ED94E00E94490B4AE008
:1003300050E064E070E086ED94E00E94120C6CE9FD
:1003400071E086ED94E00E94490B6091D10470E069
:100350004AE050E086ED94E00E94120C61E971E001
:1003600086ED94E00E94490B6091D00470E04AE071
:1003700050E086ED94E00E94120C65ED71E086ED90
:1003800094E00C94630B2F923F924F925F926F9286
:100390007F928F929F92AF92BF92CF92DF92EF9215
:1003A000FF920F931F93CF93DF9300D01F92CDB78F
:1003B000DEB75C014B012901FB010481158101506D
:1003C0001109612C712CCC24CA94DC2C212C312CE9
:1003D000E12CF12C7B826A82061517057CF14E1404
:1003E0005F042CF16A817B81C40149830E948D0ED8
:1003F0002A813B812F5F3F4F4981841741F08A81D9
:100400009B818017910719F0DB82CA820CC09FEF95
:10041000E91AF90A1601EFEF2E1A3E0A6016710664
:1004200011F43B832A833901CA80DB80D3CF960144
:10043000A101B401C5010E94B80E08C04E145F04AA
:10044000B4F362E871E0C5010E94D80DC5010F90B8
:100450000F900F90DF91CF911F910F91FF90EF9030
:10046000DF90CF90BF90AF909F908F907F906F90D4
:100470005F904F903F902F9008950F931F93CF93CD
:10048000DF9300E410E0C0E0D0E082E00E948E1034
:10049000892B09F4219669E170E080E090E00E94E8
:1004A0008C0F015011090115110579F7C038D105DC
:1004B00081F41092D0046BEA71E086ED94E00E9422
:1004C000630B8FEF8093D2048093D3041092D404F3
:1004D00003C081E08093D004DF91CF911F910F91F1
:1004E0000895CF92DF92EF92FF920F93CF93DF9315
:1004F000CDB7DEB762970FB6F894DEBF0FBECDBFA3
:100500007C01BC01CE0101960E94020E23E030E086
:100510004FE2BE016F5F7F4FCE010D9634DFCE01FB
:1005200001960E946D0DB701CE0101960E94020E48
:1005300024E030E04FE2BE016F5F7F4FCE010796AF
:1005400022DFCE0101960E946D0DCE010D960E9414
:10055000FB0E6B017C01CE0107960E94FB0E61151C
:10056000710511F460E971E09B012253310903E048
:10057000B701A6018AE00E94191664EC71E086EDCD
:1005800094E00E94630BCE0107960E946D0DCE0190
:100590000D960E946D0D62960FB6F894DEBF0FBEE9
:1005A000CDBFDF91CF910F91FF90EF90DF90CF9073
:1005B00008950F931F93CF93DF93EC0103E010E0B6
:1005C00088818093D20489818093D3048A81809327
:1005D000D4048DEF95E075DE62E370E080E090E09A
:1005E0000E948C0F1092D2041092D3041092D40463
:1005F0008DEF95E066DE62E370E080E090E00E94BF
:100600008C0F0150110901151105D1F6DF91CF9121
:100610001F910F910895CF92DF92EF92FF920F9367
:100620001F93CF93DF93CDB7DEB7A3970FB6F894A0
:10063000DEBF0FBECDBF6C01BC01CE0101960E9492
:10064000020E23E030E04FE2BE016F5F7F4FCE012C
:100650004B9699DECE0101960E946D0DB601CE013A
:1006600001960E94020E24E030E04FE2BE016F5F6F
:100670007F4FCE01459687DECE0101960E946D0D1B
:10068000B601CE0101960E94020E25E030E04FE255
:10069000BE016F5F7F4FCE010F9675DECE010196D2
:1006A0000E946D0DB601CE0101960E94020E26E059
:1006B00030E04FE2BE016F5F7F4FCE01099663DEEF
:1006C000CE0101960E946D0D6CE371E0CE010F9694
:1006D0000E945D0E81110EC06AEE71E0CE010F9690
:1006E0000E945D0E81110AC0CE010F960E94FB0E82
:1006F0006B0106C020E1C22ED12C02C0C12CD12C2E
:10070000CE0109960E94FB0E8B016115710511F453
:1007100008EC10E0CE0145960E94FB0EF62ECE01AD
:100720004B960E94FB0EAB01BC010253110993E0F2
:10073000E92E2AE0CE0101960E944D13C114D10486
:1007400011F440E010C0C60101970F9738F44C2D0A
:100750006F2DCE0101960E9422140AC080E1C816B6
:10076000D10431F441E06F2DCE0101960E940014B6
:1007700064EC71E086ED94E0A6D719A280E88AA324
:100780001BA2CE01819615DFCE0109960E946D0D48
:10079000CE010F960E946D0DCE0145960E946D0D03
:1007A000CE014B960E946D0DA3960FB6F894DEBF56
:1007B0000FBECDBFDF91CF911F910F91FF90EF90B2
:1007C000DF90CF900895CF93DF9300D000D000D07A
:1007D000CDB7DEB768ED71E0CE0101960E94D80D6D
:1007E000CE01019618DFCE0101960E946D0D809119
:1007F000D10481110FC06EEE71E086ED94E063D7F5
:100800008FEF8093D2041092D3041092D4048DEF12
:1008100095E057DD26960FB6F894DEBF0FBECDBF2C
:10082000DF91CF910895CF93DF9300D01F92CDB782
:10083000DEB78091CC03811145C01092BE031092A7
:10084000BD038FEF8093C1038093C2038093C303E2
:100850008093C4038093C5038093C60381E0809393
:10086000C7031092C9031092C8031092C0031092DC
:10087000BF038091FB059091FC05892B31F48BEB34
:1008800093E09093FC058093FB05E091F905F091CE
:10089000FA05309721F08BEB93E0958384838BEB03
:1008A00093E09093FA058093F9051092CB03109290
:1008B000CA0387E293E09093BC038093BB0381E07B
:1008C0008093CC0320E030E041E050E062ED74E042
:1008D0008BEB93E00E94501E8FEF89838A831B82EB
:1008E000CE01019666DE0F900F900F90DF91CF91B1
:1008F00008958F929F92AF92BF92CF92DF92EF9224
:10090000FF920F931F93CF93DF93EC01E881F9815E
:100910009BB190618BB18F7E8BB938852D81D32EA1
:10092000D21ADD82AD84AA81BB812B859A848C8406
:10093000EC80FE807F8119850990D881C02D0981C6
:10094000002331F0402F0D2D400F08F44FEF01C070
:1009500040E0042F029F012D1124C0E04C2F5C2F9A
:100960006C2F002CEA01CC2E4C2D5D2F9BB900C0C2
:1009700007FF8BB960814427889400C000C0002C19
:100980008BB961116E0D00C0002C9BB900C006FF31
:100990008BB908F46FEF889400C000C000C08BB919
:1009A00090FC460F00C0002C9BB900C005FF8BB91E
:1009B0004795889491FC460F00C000C0002C8BB96D
:1009C0004795889400C0002C9BB900C004FF8BB9E8
:1009D00092FC460F4795889400C000C0002C8BB94C
:1009E00093FC460F00C0002C9BB900C003FF8BB9DD
:1009F0004795889494FC460F00C000C0002C8BB92A
:100A00004795889400C0002C9BB900C002FF8BB9A9
:100A100095FC460F4795889400C000C0002C8BB908
:100A200096FC460F00C0002C9BB900C001FF8BB99B
:100A30004795889497FC460F00C000C0002C8BB9E6
:100A40004795889400C0002C9BB900C000FF8BB96B
:100A5000E194E70E00C000C000C0002C8BB9042F49
:100A600000C000C09BB900C007FF8BB9628144275A
:100A7000889400C000C0002C8BB961116F0D00C0BC
:100A8000002C9BB900C006FF8BB908F46FEF889467
:100A900000C000C000C08BB980FC460F00C0002C15
:100AA0009BB900C005FF8BB94795889481FC460F20
:100AB00000C000C0002C8BB94795889400C0002C62
:100AC0009BB900C004FF8BB982FC460F4795889400
:100AD00000C000C0002C8BB983FC460F00C0002C66
:100AE0009BB900C003FF8BB94795889484FC460FDF
:100AF00000C000C0002C8BB94795889400C0002C22
:100B00009BB900C002FF8BB985FC460F47958894BE
:100B100000C000C0002C8BB986FC460F00C0002C22
:100B20009BB900C001FF8BB94795889487FC460F9D
:100B300000C000C0002C8BB94795889400C0002CE1
:100B40009BB900C000FF8BB9EA0DF11D8894042FFA
:100B500000C000C0002C8BB9F194F10E00C0002C35
:100B60009BB900C007FF8BB961814427889400C0FE
:100B700000C0002C8BB961116D0D00C0002C9BB919
:100B800000C006FF8BB908F46FEF889400C000C066
:100B900000C08BB920FD460F00C0002C9BB900C0DF
:100BA00005FF8BB94795889421FD460F00C000C012
:100BB000002C8BB94795889400C0002C9BB900C0CD
:100BC00004FF8BB922FD460F4795889400C000C0F2
:100BD000002C8BB923FD460F00C0002C9BB900C030
:100BE00003FF8BB94795889424FD460F00C000C0D1
:100BF000002C8BB94795889400C0002C9BB900C08D
:100C000002FF8BB925FD460F4795889400C000C0B0
:100C1000002C8BB926FD460F00C0002C9BB900C0EC
:100C200001FF8BB94795889427FD460F00C000C08F
:100C3000002C8BB94795889400C0002C9BB900C04C
:100C400000FF8BB9D194D30E042F00C000C000C0A8
:100C50008BB9119709F08ACEDF91CF911F910F9137
:100C6000FF90EF90DF90CF90BF90AF909F908F90CC
:100C70000895FF920F931F93CF93DF93EC01809120
:100C8000BA038F5F982F97709093BA0380FD02C0CC
:100C900080E001C080E891FD8064947009F080627A
:100CA00030E1F32EF80E20E030E000E011E0FE012C
:100CB000E20FF31F6285662331F070E0C8010E94E5
:100CC0002F1F6F5F01C060E067834F2D469F412D4E
:100CD00011244483662311F0615067832F5F3F4FD7
:100CE0002330310521F7DF91CF911F910F91FF90B4
:100CF0000895AF92BF92CF92DF92EF92FF920F933F
:100D0000CF93DF93CDB7DEB72E970FB6F894DEBF43
:100D10000FBECDBF6C015A01F901DC011C968C910C
:100D20007A8369835C834B8390819B8791819C87C5
:100D300092819D87813021F4CE0101969ADF06C011
:100D40001A86198618861F821E821D8289819A81C1
:100D50008E0D911D9A838983002319F083E08E0DF7
:100D600001C080E08E870E94690FF60127853089D7
:100D7000621B730B6A307105B0F3F894CE010196D3
:100D8000B8DD20EE31E0D5010E94801FE4E09695A9
:100D9000879577956795EA95D1F720E030E04AE9A5
:100DA000A49E212DB49E200D311D1124620F731FAE
:100DB000811D911D693EF3E07F0781059105A8F132
:100DC000DC01CB01885E9340A109B10942E0B695F0
:100DD000A795979587954A95D1F740E050E027E091
:100DE000829F412D929F400D511D11242091D504C9
:100DF00030E0280F391F240F351F80917405909122
:100E00007505A0917605B0917705432F5527840F7E
:100E1000951FA11DB11D8093740590937505A09336
:100E20007605B09377052093D50478940E94690FD6
:100E3000D60150967C936E931F972E960FB6F8941A
:100E4000DEBF0FBECDBFDF91CF910F91FF90EF902E
:100E5000DF90CF90BF90AF900895EF92FF920F93E5
:100E6000E12CF12C00E045DF0F91FF90EF90089509
:100E7000EF92FF920F93E12CF12C01E03ADF0F91FA
:100E8000FF90EF900895EF92FF920F93CF93DF932F
:100E900000D01F92CDB7DEB7AB0119821A821B8238
:100EA000E12CF12C00E09E012F5F3F4FB90121DFC3
:100EB0000F900F900F90DF91CF910F91FF90EF90D7
:100EC0000895EF920F93E12C0DE02AE042E060EDEF
:100ED00077E084ED93E00E94DA170F91EF90089588
:100EE000CCDA4DE950E062E08FEF0E94051643ED49
:100EF00050E062E08FEF0E94151361E080E00E94F5
:100F00003F1760E774E180E00E947D1767EB70E1B6
:100F100080E00E947D1765EB77E080E00E947D17FE
:100F200084ED93E00E94EB1B8091D00481114BCCA7
:100F3000089526E040E052EC61E070E086ED94E038
:100F400065D244E650E060E070E086ED94E09BD529
:100F50006AE472E086ED94E0B6D369E572E086ED6E
:100F600094E0B1D360DCBCDFB0C9CF93DF93CDB7E1
:100F7000DEB7ED970FB6F894DEBF0FBECDBF8CE3A2
:100F80008DAFAE01435C5F4FBE016F5F7F4F84ED5D
:100F900093E00E94A4178823C1F08DADE1E0F0E05A
:100FA000EC0FFD1FE80FF11D10826EE672E086ED7A
:100FB00094E06FD3BE016F5F7F4F86ED94E069D3FD
:100FC00065ED71E086ED94E07ED3ED960FB6F89472
:100FD000DEBF0FBECDBFDF91CF910895EF92FF929C
:100FE0000F931F93CF93DF93CDB7DEB72C970FB638
:100FF000F894DEBF0FBECDBFEDB6FEB6BC01CE018C
:10100000019600D623E030E04FE2BE016F5F7F4FD4
:10101000CE010796B8D9CE0101965FD58B859C8508
:10102000AC014F5F5F4F2DB73EB7241B350B0FB69A
:10103000F8943EBF0FBE2DBF0DB71EB70F5F1F4FF9
:10104000CC9708F039C020E030E0B801CE01079617
:1010500065D6F80101900020E9F7AF014150510930
:10106000401B510BB80184ED93E00E943019E091D0
:10107000D403F091D5030484F585E02D84ED93E04D
:1010800009956EE672E086ED94E003D3B80186ED33
:1010900094E0FFD265ED71E086ED94E014D364EC4A
:1010A00071E086ED94E00FD38FEF89838A831B82F2
:1010B000CE0101967EDA0FC066E872E086ED94E01C
:1010C00002D31092D2041092D3048FEF8093D404F1
:1010D0008DEF95E0F6D8CE010796FFD40FB6F894C1
:1010E000FEBE0FBEEDBE2C960FB6F894DEBF0FBE4F
:1010F000CDBFDF91CF911F910F91FF90EF90089599
:10110000CF93DF93CDB7DEB768970FB6F894DEBF05
:101110000FBECDBF86ED94E099D0181619060CF0DD
:101120008BC04AE066ED74E0CE014396B2D4BE01B6
:101130006D5E7F4FCE01019665D521E030E04FE234
:10114000BE016F5F7F4FCE010D961DD9CE01019676
:10115000C4D462E871E0CE010D96AFD5882331F09A
:101160006EE972E086ED94E0AED260C06CEC72E0A5
:10117000CE010D96A2D5882309F451C0BE016D5E43
:101180007F4FCE0101963ED522E030E04FE2BE0116
:101190006F5F7F4FCE010796F6D8CE0101969DD4A2
:1011A00062ED72E0CE01079688D5882351F0BE012A
:1011B0006D5E7F4FCE01019625D5CE01019691D966
:1011C00010C066ED72E0CE01079677D5882369F0EE
:1011D000BE016D5E7F4FCE01019614D5CE01019602
:1011E0001ADACE01019679D416C06AED72E0CE010A
:1011F000079663D5882351F0BE016D5E7F4FCE0107
:10120000019600D5CE010196E9DEEBCF6FED72E0DD
:1012100086ED94E058D2CE0107965FD407C06EE108
:1012200073E0CE010D9649D581114FD8CE010D96B0
:1012300054D4CE01439651D468960FB6F894DEBFCD
:101240000FBECDBFDF91CF9108955ACFFC01818DA4
:10125000228D90E0805C9F4F821B91098F739927AC
:101260000895FC01918D828D981731F0828DE80FE1
:10127000F11D858D90E008958FEF9FEF0895FC019B
:10128000918D828D981761F0828DDF01A80FB11DBD
:101290005D968C91928D9F5F9F73928F90E00895E1
:1012A0008FEF9FEF08958FEB9AE0892B41F080E05C
:1012B00090E0892B21F063D181110C9400000895F6
:1012C000FC01848DDF01A80FB11DA35ABF4F2C91E3
:1012D000848D90E001968F739927848FA689B789B2
:1012E0002C93A089B1898C9180648C93938D848D8B
:1012F000981306C00288F389E02D80818F7D80835A
:101300000895CF93DF93EC01888D8823C1F0EA899B
:10131000FB89808185FD05C0A889B9898C9186FDEE
:101320000EC00FB607FCF5CF808185FFF2CFA889EC
:10133000B9898C9185FFEDCFCE01C2DFE8CFDF9177
:10134000CF910895CF92DF92FF920F931F93CF9387
:10135000DF931F92CDB7DEB76C01DC015B969C91E9
:101360005B975C968C915C97981307C05096ED91B3
:10137000FC915197808185FD31C0F601038D10E00D
:101380000F5F1F4F0F731127F02EF601848DF81297
:1013900010C00FB607FCF9CFD6015096ED91FC9125
:1013A0005197808185FFF1CFC601698389DF69810B
:1013B000ECCF838DE80FF11DE35AFF4F6083D60118
:1013C0005B960C935B975296ED91FC9153978081BD
:1013D0008062808381E058968C930DC0D60156962A
:1013E000ED91FC91579760835096ED91FC91519748
:1013F00080818064808381E090E00F90DF91CF91C5
:101400001F910F91FF90DF90CF900895BF92CF92E0
:10141000DF92EF92FF92CF93DF93EC016A017B01A1
:10142000B22EE889F98982E08083411581EE580760
:1014300061057105A1F060E079E08DE390E0A7011E
:1014400096010E94421F21503109410951095695C8
:10145000479537952795211580E1380798F0E88959
:10146000F989108260E874E88EE190E0A7019601A6
:101470000E94421F21503109410951095695479553
:1014800037952795EC85FD853083EE85FF85208394
:10149000188EEC89FD89B082EA89FB8980818061A0
:1014A0008083EA89FB89808188608083EA89FB895F
:1014B000808180688083EA89FB8980818F7D808339
:1014C000DF91CF91FF90EF90DF90CF90BF90089584
:1014D0001F920F920FB60F9211242F938F939F9309
:1014E000EF93FF93E091E604F091E7048081E091AF
:1014F000EC04F091ED0482FD12C090818091EF0424
:101500008F5F8F732091F004821751F0E091EF0408
:10151000F0E0EA52FB4F958F8093EF0401C0808189
:10152000FF91EF919F918F912F910F900FBE0F9090
:101530001F9018951F920F920FB60F9211242F93A0
:101540003F934F935F936F937F938F939F93AF934B
:10155000BF93EF93FF9386ED94E0B2DEFF91EF919E
:10156000BF91AF919F918F917F916F915F914F91BB
:101570003F912F910F900FBE0F901F90189586ED01
:1015800094E064DE21E0892B09F420E0822F0895A5
:101590001092D9041092D80488EE93E0A0E0B0E055
:1015A0008093DA049093DB04A093DC04B093DD0411
:1015B00087E393E09093D7048093D60485EC90E082
:1015C0009093E3048093E20484EC90E09093E5042C
:1015D0008093E40480EC90E09093E7048093E60429
:1015E00081EC90E09093E9048093E80482EC90E031
:1015F0009093EB048093EA0486EC90E09093ED04E2
:101600008093EC041092EF041092F0041092F10415
:101610001092F2040895CF92DF92EF92FF920F930F
:101620001F93CF93DF936C017A01EB01E60EF71E57
:1016300000E010E0CE15DF0561F06991D601ED9173
:10164000FC910190F081E02DC6010995080F191F4A
:10165000F1CFC801DF91CF911F910F91FF90EF90D3
:10166000DF90CF9008956115710581F0DB010D9039
:101670000020E9F7AD0141505109461B570BDC0131
:10168000ED91FC910280F381E02D099480E090E0DF
:101690000895E9CFDC01ED91FC910190F081E02DFE
:1016A00009940F931F93CF93DF93EC016DE0F2DF6A
:1016B0008C016AE0CE01EEDF800F911FDF91CF91A8
:1016C0001F910F9108950F931F93CF93DF93EC0118
:1016D000CADF8C01CE01E5DF800F911FDF91CF9132
:1016E0001F910F9108958F929F92AF92BF92CF92C8
:1016F000DF92EF92FF920F931F93CF93DF93CDB7BB
:10170000DEB7A1970FB6F894DEBF0FBECDBF7C0148
:10171000C42EE52FCB01D22E19A221E02D1510F0F9
:101720002AE0D22E8E010F5D1F4F8D2C912CA12C03
:10173000B12C6C2D7E2FA50194010E94421F8C2D8F
:10174000D29E80191124015011098A3014F4805D51
:1017500001C0895CF80180832115310541055105DF
:1017600021F0C22EE32FCA01E4CFB801C7017BDF0D
:10177000A1960FB6F894DEBF0FBECDBFDF91CF911B
:101780001F910F91FF90EF90DF90CF90BF90AF909F
:101790009F908F900895CF92DF92EF92FF920F93D8
:1017A0001F93CF93DF93EC016A017B012115310573
:1017B00079F4E881F9810190F081E02D642FDF91C7
:1017C000CF911F910F91FF90EF90DF90CF900994F0
:1017D0002A303105D9F477FF18C06DE25BDF8C0148
:1017E00044275527BA014C195D096E097F092AE083
:1017F000CE0179DF800F911FDF91CF911F910F9163
:10180000FF90EF90DF90CF9008952AE0B701A601F6
:10181000CE01DF91CF911F910F91FF90EF90DF905C
:10182000CF9061CF9A01AB01662757FD6095762F67
:10183000B2CF2115310541F4DC01ED91FC9101900D
:10184000F081E02D642F09944ECF9A01462F50E08D
:1018500060E070E0EECF9A01AB0160E070E0E9CFAC
:101860004F925F926F927F928F929F92AF92BF92B0
:10187000CF92DF92EF92FF920F931F93CF93DF935C
:10188000EC016A017B01B22E9A01AB01C701B601DE
:101890000E94C021882319F063E473E027C0260169
:1018A0003701E89477F82FEF3FEF4FE75FE7C30189
:1018B000B2010E94C02181110DC02FEF3FEF4FE711
:1018C0005FE7C301B2010E940A2018161CF467E406
:1018D00073E00CC02FEF3FEF4FE75FE4C701B601A5
:1018E0000E9459211816A4F46BE473E0CE01DF9135
:1018F000CF911F910F91FF90EF90DF90CF90BF900D
:10190000AF909F908F907F906F905F904F90ABCEF5
:101910002FEF3FEF4FE75FECC701B6010E940A20AF
:1019200087FDE2CF20E030E0A901C701B6010E94A7
:101930000A2087FF09C06DE2CE01ACDE8C01F7FA08
:10194000F094F7F8F09402C000E010E0A12C60E001
:1019500070E080E09FE3AB1441F020E030E040E233
:1019600051E40E940E20A394F6CF9B01AC01C70165
:10197000B6010E94A61F6B017C010E947B202B01F7
:101980003C010E94A7209B01AC01C701B6010E9447
:10199000A51F6B017C012AE0B301A201CE01A3DEE9
:1019A000080F191FBB2031F06FE473E0CE015BDE3E
:1019B000080F191F7B2C772039F120E030E040E23E
:1019C00051E4C701B6010E945D216B017C010E94B8
:1019D00076204B01AA2497FCA094BA2C2AE030E090
:1019E000B501A401CE01D7DE080F191FC501B4014E
:1019F0000E94A9209B01AC01C701B6010E94A51F4E
:101A00006B017C017A94D7CFC801DF91CF911F91F0
:101A10000F91FF90EF90DF90CF90BF90AF909F908D
:101A20008F907F906F905F904F90089519CF0F9394
:101A30001F93CF93DF93EC0140D2688779878A8721
:101A40009B87E881F9810680F781E02DCE01099519
:101A500097FF14C032D2088519852A853B85601B03
:101A6000710B820B930B0C811D812E813F816017BE
:101A700071078207930728F38FEF9FEFDF91CF91D4
:101A80001F910F910895FC014483558366837783EA
:101A90000895EF92FF920F931F93CF93DF93EC0182
:101AA0008B01E42E62E871E083D0C801C0DFFF241F
:101AB000E7FCF09497FD09C08E159F0531F0682F63
:101AC000CE01E9D0C801B3DFF5CFCE01DF91CF91D0
:101AD0001F910F91FF90EF900895FC0180819181FB
:101AE0000C945C22CF93DF93EC018881998100975D
:101AF00011F00E945C22198218821D821C821B82B6
:101B00001A82DF91CF9108950F931F93CF93DF93A4
:101B1000EC018B016F5F7F4F888199810E94EB22DE
:101B2000009731F0998388831B830A8381E001C089
:101B300080E0DF91CF911F910F910895CF93DF93B4
:101B4000EC0188819981892B29F08A819B818617F4
:101B5000970758F4CE01D8DF882341F08C819D810E
:101B6000892B19F4E881F981108281E0DF91CF910E
:101B70000895EF92FF920F931F93CF93DF93EC01A1
:101B80007B018A01BA01DADF811103C0CE01AADF2D
:101B900007C01D830C83B701888199810E94F323BC
:101BA000CE01DF91CF911F910F91FF90EF9008959B
:101BB000FC01118210821382128215821482611537
:101BC000710551F0FB0101900020E9F7AF01415090
:101BD0005109461B570BCDCF0895CF93DF93EC01EE
:101BE000FB018617970751F06081718161157105BE
:101BF00021F044815581BDDF01C074DFCE01DF914A
:101C0000CF910895FC0111821082138212821582F5
:101C10001482E3CFCF93DF93EC016115710559F086
:101C2000FB0101900020E9F7AF0141505109461B2B
:101C3000570B9FDF01C056DFCE01DF91CF91089592
:101C4000EF92FF920F931F93CF93DF93EC017B01F1
:101C50000C811D816115710511F480E015C04115DD
:101C6000510589F0040F151FB80168DF8823A9F317
:101C7000288139818C819D81B701820F931F0E9439
:101C8000F3231D830C8381E0DF91CF911F910F918E
:101C9000FF90EF900895CF93DF9300D0CDB7DEB7DC
:101CA00069831A8241E050E0BE016F5F7F4FC8DF59
:101CB0000F900F90DF91CF910895FC012481358121
:101CC000232B31F421E061157105A1F0FB0108C05F
:101CD000FC01808191816115710531F421E0FC01E5
:101CE0008081882339F005C00E94EA2321E0892BF6
:101CF00009F020E0822F0895FC01248135816217CC
:101D0000730748F480819181009729F0FC01E60F68
:101D1000F71F8081089580E00895EECF0F931F9301
:101D2000CF93DF93EB0141155105E9F02097D9F0EE
:101D3000FC016481758126173707A0F4621B730BC1
:101D40008A01015011096017710708F48B01FC0129
:101D500060817181620F731FA801CE010E94FA2376
:101D6000C00FD11F1882DF91CF911F910F9108955D
:101D7000BF92CF92DF92EF92FF920F931F93CF9378
:101D8000DF936C017B01EA0189012417350720F4F8
:101D90008D2FE901042F182F62E871E0C60108DFDA
:101DA000D70114968D919C911597C817D907C0F447
:101DB0008017910708F48C01D701ED91FC911197E0
:101DC000E00FF11FB08010826D917C916C0F7D1F30
:101DD000C60120DFD701ED91FC91E00FF11FB08229
:101DE000C601DF91CF911F910F91FF90EF90DF908F
:101DF000CF90BF900895FC0180819181009711F0F0
:101E00000C94B22360E070E0CB0108950E94AE23F1
:101E10000895B2D0FDDF8DD8C3E5D9E016DA20975A
:101E2000E9F341DAFBCF1F920F920FB60F92112404
:101E30002F933F938F939F93AF93BF93809174059C
:101E400090917505A0917605B09177053091730555
:101E500023E0230F2D3720F40196A11DB11D05C0ED
:101E600026E8230F0296A11DB11D209373058093D0
:101E7000740590937505A0937605B09377058091CE
:101E8000780590917905A0917A05B0917B0501962E
:101E9000A11DB11D8093780590937905A0937A05D3
:101EA000B0937B05BF91AF919F918F913F912F91FF
:101EB0000F900FBE0F901F9018952FB7F894609158
:101EC00074057091750580917605909177052FBF07
:101ED00008953FB7F8948091780590917905A09185
:101EE0007A05B0917B0526B5A89B05C02F3F19F058
:101EF0000196A11DB11D3FBF6627782F892F9A2F0C
:101F0000620F711D811D911D42E0660F771F881FB2
:101F1000991F4A95D1F70895CF92DF92EF92FF92E1
:101F2000CF93DF936B017C01D4DFEB01C114D104AB
:101F3000E104F10479F01AD1CCDF6C1B7D0B683E13
:101F40007340A0F381E0C81AD108E108F108C85134
:101F5000DC4FECCFDF91CF91FF90EF90DF90CF90EF
:101F600008950197009739F0880F991F880F991FDE
:101F700002970197F1F70895789484B5826084BD43
:101F800084B5816084BD85B5826085BD85B581607D
:101F900085BDEEE6F0E0808181608083E1E8F0E0DD
:101FA0001082808182608083808181608083E0E80C
:101FB000F0E0808181608083E1EBF0E080818460EB
:101FC0008083E0EBF0E0808181608083EAE7F0E0ED
:101FD0008081846080838081826080838081816051
:101FE00080838081806880831092C100089583304F
:101FF00081F028F4813099F08230A1F00895873083
:10200000A9F08830B9F08430D1F4809180008F7DC0
:1020100003C0809180008F7780938000089584B5FD
:102020008F7702C084B58F7D84BD08958091B00004
:102030008F7703C08091B0008F7D8093B0000895AA
:10204000CF93DF9390E0FC01E458FF4F2491FC0113
:10205000E057FF4F8491882349F190E0880F991F42
:10206000FC01E854FF4FA591B49182559F4FFC01AC
:10207000C591D4919FB7611108C0F8948C912095B7
:1020800082238C93888182230AC0623051F4F894B1
:102090008C91322F309583238C938881822B888377
:1020A00004C0F8948C91822B8C939FBFDF91CF91C9
:1020B00008950F931F93CF93DF931F92CDB7DEB791
:1020C000282F30E0F901E859FF4F8491F901E458D5
:1020D000FF4F1491F901E057FF4F04910023C1F025
:1020E000882319F0698383DF6981E02FF0E0EE0F28
:1020F000FF1FE255FF4FA591B4919FB7F8948C91C3
:10210000611103C01095812301C0812B8C939FBF67
:102110000F90DF91CF911F910F910895CF93DF938F
:10212000282F30E0F901E859FF4F8491F901E45874
:10213000FF4FD491F901E057FF4FC491CC2389F0B0
:10214000811155DFEC2FF0E0EE0FFF1FEC55FF4F34
:10215000A591B4912C912D2381E090E021F480E0B1
:1021600002C080E090E0DF91CF9108950895CF9272
:10217000DF92EF92FF920F931F938091AB0588231C
:1021800009F442C28091A7059091A805A091A905E4
:10219000B091AA058093A3059093A405A093A505EB
:1021A000B093A60596DE6093A7057093A80580936B
:1021B000A9059093AA0520919E05222319F010925B
:1021C0009E0522C22091B0053091B105C090A305B3
:1021D000D090A405E090A505F090A60537FD15C0A8
:1021E000DC01CB018C199D09AE09BF0900919C054A
:1021F00010919D0520E030E080179107A207B307FA
:1022000020F481E080939E05FFC180919F0590910D
:10221000A0059601281B390BC901C0929F05D092D9
:10222000A005E092A105F092A2052091B0053091A1
:10223000B1052F3F3F4F81F5813C22E1920708F421
:10224000E3C110929B0568E270E00E941B1FFB0136
:102250007093900560938F059B01220F331F260F0B
:10226000371FC9016AE070E00E941B1F70939D0533
:1022700060939C0530938E0520938D0530938C05DB
:1022800020938B0553E0EE0FFF1F5A95E1F7F09373
:102290008A05E093890529C12091B0053091B105E7
:1022A000232BA9F420918D0530918E05281739072D
:1022B00008F497C110929A05109298051092910512
:1022C0001092920510929305109294050EC12091E0
:1022D000B0053091B10521303105C9F420918F0549
:1022E0003091900567E0629FA001639F500D11241B
:1022F0008417950708F475C16FE0629FA001639F82
:10230000500D11244817590708F0EFC06AC12091F9
:10231000B0053091B105243931050CF0E6C060916B
:102320008805660F6093880520918D0530918E0594
:102330002817390710F06E700FC020918B0530916F
:102340008C0582179307B8F02091890530918A0592
:102350002817390780F06160609388058091B00587
:102360009091B10564E070E00E942F1F81309105CB
:1023700009F0BBC02BC020918F053091900574E10E
:10238000729FA001739F500D11248417950708F4C4
:1023900028C170E5729FA001739F500D112448174A
:1023A000590708F41EC161FD1CC18091B0059091D0
:1023B000B1058339910509F4A2C08091B0059091CF
:1023C000B1058338910509F00CC199C02091B00581
:1023D0003091B1052A3631053CF5809191059091F7
:1023E0009205A0919305B0919405880F991FAA1F9B
:1023F000BB1F8093910590939205A0939305B09392
:102400009405209188052F70213009F46EC0243086
:1024100009F0E7C081608093910590939205A093A5
:102420009305B093940561C02091B0053091B1053A
:102430002E3631057CF4809188058F70813039F01B
:10244000843009F0CEC081E0809395054EC0109293
:1024500095054BC02091B0053091B105223731056B
:10246000ACF4209188052F70213021F040F0243009
:1024700041F0B7C0109297051092960536C082E0E1
:1024800090E090939705809396052FC08091B005BA
:102490009091B105823891058CF480919805880F50
:1024A00080939805909188059F709130F1F0943059
:1024B00009F097C081608093980517C08091B0059E
:1024C0009091B1058239910584F480919A05880F25
:1024D00080939A05909188059F70913031F09430E7
:1024E00009F07FC0816080939A058091B00590913A
:1024F000B10501969093B1058093B00585C0809198
:10250000B0059091B1058339910519F481E080936C
:1025100099054091910550919205609193057091B4
:10252000940580917E0590917F05A0918005B091E2
:102530008105481759076A077B0709F055C0909134
:1025400098058091850598134FC0909199058091C9
:102550008605981349C090919A0580918705981334
:1025600043C0909195058091820598133DC02091BC
:1025700096053091970580918305909184052817E1
:10258000390791F580919B058F5F80939B05909112
:10259000AF058917A8F18091AC05811122C081E0B7
:1025A0008093AC05E091AD05F091AE05E0908F050C
:1025B000F09090050091910510919205209193055E
:1025C000309194054091950550919605609197053D
:1025D000709198058091990590919A0509951092AE
:1025E000AC058FEF9FEF86CF10929B058CE0EFE854
:1025F000F5E0ACE7B5E001900D928A95E1F7C2CF26
:102600001092B1051092B0051F910F91FF90EF90BD
:10261000DF90CF9008958FEF9FEF9093B105809357
:10262000B00581E08093AB0508958093B205609377
:10263000AF055093AE054093AD05EDDF8091B20537
:1026400087FD06C041E050E067EB70E10C94921EFC
:102650000895CF93DF93EC0161E08C812ADD8D81B9
:102660009E817FDC60E08C8124DD8D819E8125E070
:10267000AC01249FC001259F900D112472DC61E004
:102680008C8117DD8D819E816CDC60E08C8111DD99
:102690008D819E81DF91CF9164CCEF920F931F9338
:1026A000FC01822F408351836283738324831683CA
:1026B000058341E050E001C0440FEA94EAF741503D
:1026C000478361E01F910F91EF90BACCCF93DF93D6
:1026D000EC0161E08C81EDDC8D819E8142DC60E06B
:1026E0008C81E7DC2D813E81A901569547956AE0F2
:1026F000629FC001639F900D1124840F951FDF918D
:10270000CF912FCCCF93DF93EC0161E08C81D1DCB2
:102710008D819E8126DC60E08C81CBDC8D819E8169
:1027200028E2AC01249FC001259F900D1124DF9168
:10273000CF9117CCCF93DF93EC01662319F0DF9193
:10274000CF9187CF61E08C81B4DC8D819E8109DCE3
:1027500060E08C81AEDC8D819E8103DC61E08C8148
:10276000A8DC8D819E81FDDB60E08C81A2DC8D8107
:102770009E8125E0AC01249FC001259F900D11246E
:10278000DF91CF91EECB0F931F93CF93DF938C010B
:10279000C9E1D0E0F80140815181628173810C2E42
:1027A00004C076956795579547950A94D2F7642F9C
:1027B0006170C801BFDF219768F7DF91CF911F914A
:1027C0000F910895EF92FF920F931F93CF93DF9392
:1027D0008C01C3E0D0E0E62EF12CB7010C2E02C034
:1027E000759567950A94E2F76170C801A3DF219798
:1027F000A0F7DF91CF911F910F91FF90EF90089577
:10280000FF920F931F93CF93DF93EC01062FF42ECB
:102810001F8117FD11C0CE0159DFCE01B4DF60E08A
:10282000CE0188DF6F2DCE0185DF602FCE01CADF9C
:10283000CE0168DF1150EDCFDF91CF911F910F9145
:10284000FF900895CF92DF92EF92FF920F931F9324
:10285000CF93DF93EC01C62EDF80E42EF12CD7FC62
:1028600036C0CE0133DFCE018EDF60E0CE0162DF05
:1028700061E08C811EDC8D819E8173DB60E08C8148
:1028800018DC8D819E816DDB61E08C8112DC8D8195
:102890009E8167DB60E08C810CDC8D819E8161DB39
:1028A0006C2DCE018FDF03E010E0C701002E02C0C7
:1028B000959587950A94E2F7682F6170CE013ADF0B
:1028C0000150110990F7CE011DDFDA94C8CFDF91D6
:1028D000CF911F910F91FF90EF90DF90CF900895CF
:1028E000CF92DF92EF92FF920F931F938091D405C6
:1028F000882309F47CC18091D0059091D105A091E5
:10290000D205B091D3058093CC059093CD05A093CB
:10291000CE05B093CF05DDDA6093D0057093D10575
:102920008093D2059093D3052091C705222319F0F7
:102930001092C7055CC12091D905C090CC05D090FC
:10294000CD05E090CE05F090CF0527FD15C0DC0148
:10295000CB018C199D09AE09BF090091C5051091E5
:10296000C60520E030E080179107A207B30720F4E6
:1029700081E08093C7053BC18091C8059091C9054E
:102980009601281B390BC901C092C805D092C90510
:10299000E092CA05F092CB052091D9052F3F09F0AE
:1029A00056C089382EE0920708F421C16FE170E02B
:1029B0000E941B1F9B017093C4056093C305109276
:1029C000C2051092BE051092BF051092C00510926C
:1029D000C1051092BA051092BB051092BC05109269
:1029E000BD05CB01880F991F880F991FEAE0F0E021
:1029F000BF010E941B1F7093C6056093C505C901E6
:102A000054E0880F991F5A95E1F7BF010E941B1FE0
:102A10007093B9056093B80547E1429FC001439F99
:102A2000900D1124BF010E941B1F7093B705609386
:102A3000B60545E2429FC001439F900D1124BF019E
:102A40000E941B1F7093B5056093B405CBC0209105
:102A5000D90520330CF05FC04091B305440F40937B
:102A6000B3052091B8053091B9052817390710F042
:102A70004E7011C02091B6053091B70582179307AB
:102A800008F4A3C02091B4053091B5052817390783
:102A900008F49BC041604093B3058091D9058378C9
:102AA00087FF03C081508C6F8F5F833009F09AC01D
:102AB0002091BA053091BB054091BC055091BD05F0
:102AC000A3E0B0E00E94861F6093BA057093BB0537
:102AD0008093BC059093BD052091B3052F702630DF
:102AE00061F02A3021F0253009F06FC07BC0DC0195
:102AF000CB010196A11DB11D05C0DC01CB010296E1
:102B0000A11DB11D8093BA059093BB05A093BC0590
:102B1000B093BD0567C02091D905203349F42091B9
:102B2000B8053091B9052817390708F05BC04DC0CA
:102B30004091C3055091C40569E1649F9001659F70
:102B4000300D11248217930708F43FC064E2649F9C
:102B50009001659F300D112428173907B0F160915D
:102B6000BA057091BB058091BC059091BD0500919F
:102B7000BE051091BF052091C0053091C1056017B9
:102B800071078207930751F01092C2056093BE054A
:102B90007093BF058093C0059093C1052091C20535
:102BA0002F5F2093C2053091D805231780F0209124
:102BB000D50521110AC021E02093D505E091D60565
:102BC000F091D70509951092D5058FEF0EC01092A0
:102BD000BA051092BB051092BC051092BD0510926B
:102BE000D90505C08091D9058F5F8093D9051F91C4
:102BF0000F91FF90EF90DF90CF9008958FEF80932B
:102C0000D90581E08093D40508958093DA05609317
:102C1000D8055093D7054093D605F0DF8091DA05AB
:102C200087FD06C041E050E060E774E10C94921E1D
:102C300008952F923F924F925F926F927F928F9260
:102C40009F92AF92BF92CF92DF92EF92FF920F933B
:102C50001F93CF93DF93982EE9016F7077271CE0C5
:102C6000C12CD12C7601E3E04E2E512C612C712C1D
:102C700032E0CC0CDD1CEE1CFF1C3A95D1F7CB01E9
:102C8000BA01A30192010E94421FFA01C62AD72A63
:102C9000E82AF92AA901BF01115051F7077081E014
:102CA000282E01C0220C0A95EAF78E01000F111F91
:102CB0000C0F1D1F8FE18C9F50018D9FB00C1124B4
:102CC000312C260137018CE0882ED301C20183709C
:102CD0009927AA27BB2781309105A105B10521F1CC
:102CE00078F00297A105B10509F032C061E0892DA5
:102CF000E0D9CE0136D960E0892DDBD9C8011DC0ED
:102D000061E0892DD6D9CE012CD960E0892DD1D9A9
:102D1000C80127D961E0892DCCD9CE0122D960E044
:102D2000892DC7D9C80113C061E0892DC2D9C80156
:102D300018D960E0892DBDD9CE0113D961E0892D64
:102D4000B8D9C8010ED960E0892DB3D9CE0109D90F
:102D500092E076946794579447949A95D1F78A9421
:102D600009F0B3CF61E0892DA4D9CE01FAD860E093
:102D7000892D9FD9C501F5D83394321408F4A1CF19
:102D8000DF91CF911F910F91FF90EF90DF90CF9047
:102D9000BF90AF909F908F907F906F905F904F907B
:102DA0003F902F900895CF93DF93C091E105D0918C
:102DB000E205209739F0EA81FB8109950990D881D5
:102DC000C02DF7CFDF91CF910895CF93DF93C091BE
:102DD000E305D091E405209739F0EA81FB8109955C
:102DE0000990D881C02DF7CFDF91CF910895CF936F
:102DF000DF93C091E505D091E605209739F0EA818F
:102E0000FB8109950990D881C02DF7CFDF91CF9133
:102E10000895CF93DF93C091E705D091E8052097FF
:102E200039F0EA81FB8109950990D881C02DF7CF4F
:102E3000DF91CF910895CF93DF93C091E905D091B1
:102E4000EA05209739F0EA81FB8109950990D8813C
:102E5000C02DF7CFDF91CF910895CF93DF93C0912D
:102E6000EB05D091EC05209739F0EA81FB810995BB
:102E70000990D881C02DF7CFDF91CF910895E82F29
:102E8000F0E0E552FA4F608308958230D1F028F4E3
:102E9000882349F0813071F00895843001F1C0F049
:102EA000853021F108954091DB0550E063ED76E136
:102EB00080E022C04091DC0550E065EE76E181E0E3
:102EC0001BC04091DD0550E067EF76E182E014C061
:102ED0004091DE0550E069E077E183E00DC040916C
:102EE000DF0550E06BE177E184E006C04091E0054A
:102EF00050E06DE277E185E015C7DF92EF92FF9237
:102F00000F931F93CF93DF93D82E7B01C82FD0E070
:102F1000CC0FDD1FCF51DA4F0881198184E090E09A
:102F20000E94C421FC0199838883F382E282118389
:102F300000838D2DDF91CF911F910F91FF90EF9026
:102F4000DF90A3CF8CE30895DF92EF92FF920F936F
:102F50001F93CF93DF93EC017B018A01E881F98114
:102F60000280F381E02D0995D82E8823D1F0E11459
:102F7000F104B1F00115110599F0FE01E759FF4F79
:102F800090819750F8018081981708F49083F80198
:102F9000408150E0BE01665D7F4FC7010E94E12382
:102FA0001D8E8D2DDF91CF911F910F91FF90EF908E
:102FB000DF900895AF92BF92CF92DF92EF920F937E
:102FC000CF93DF93CDB7DEB72A970FB6F894DEBF65
:102FD0000FBECDBF6C015B012A874987EAD485E526
:102FE00093E0F60191838083B68AA58A4985478B51
:102FF0002A85208F018FE38E88E0E6E0F1E0DE0194
:10300000119601900D928A95E1F7D601A359BF4F11
:1030100088E0FE01319601900D928A95E1F72A969B
:103020000FB6F894DEBF0FBECDBFDF91CF910F91E9
:10303000EF90DF90CF90BF90AF9008952F923F9286
:103040004F925F926F927F928F929F92AF92BF92B8
:10305000CF92DF92EF92FF920F931F93CF93DF9364
:1030600000D000D01F92CDB7DEB71A013D832C836C
:103070006115710511F4F90141C06B01E12CF12CCE
:1030800083E0CC0CDD1CEE1CFF1C8A95D1F704EC10
:1030900010E0F1E0FB83812C94E2992E94EFA92EAD
:1030A000B12C2A01612C712C42E050E0B801CE0114
:1030B00001960E94D82329813A8140E050E0C50161
:1030C000B401E0D6CA01B901A7019601DBD62230CE
:1030D00031054105510528F02415350546055705EC
:1030E00040F08B818F5F8B830E5F1F4F8730E1F63F
:1030F00009C0EB81E63059F4EC81FD811182108228
:1031000080E012C02230310541055105A8F3C1010C
:10311000A0E0B0E082179307A407B50768F3EC813D
:10312000FD81318320838B810F900F900F900F9042
:103130000F90DF91CF911F910F91FF90EF90DF9053
:10314000CF90BF90AF909F908F907F906F905F9047
:103150004F903F902F900895CF93DF9300D0CDB73D
:10316000DEB7FC01658976899E012F5F3F4F4FEFE7
:103170005FEF64DF8823A9F01092800098E09093BD
:10318000810090918100982B9093810089819A8190
:10319000909389008093880080916F008260809373
:1031A0006F000F900F90DF91CF910895CF93DF9331
:1031B000EC018F890E948E1021E0892B09F420E018
:1031C0008A8D8227DF91CF910895FC01808D0C9428
:1031D0005910FC01238D6227818D0C945910CF93D7
:1031E000DF93EC018A819B81029751F060E0CE0170
:1031F000F0DF60E0CE01E9DF82E090E09B838A832C
:10320000DF91CF910895CF93DF93EC018A819B8169
:10321000049751F060E0CE01DCDF60E0CE01D5DF45
:1032200084E090E09B838A83DF91CF910895CF93D0
:10323000DF93EC018A819B81039779F0FE01E659C7
:10324000FF4F1082319610823196108261E0CE01DC
:10325000C0DF83E090E09B838A83DF91CF91089564
:103260006F927F929F92AF92BF92CF92DF92EF9236
:10327000FF920F931F93CF93DF9300D0CDB7DEB7AC
:103280003C01B62E4D3308F011C17C0125E7E20E5A
:10329000F11CDC01ED91FC910484F585E02D4A835D
:1032A000798309954A8117E0140F612F8FEF9FEF03
:1032B000B3D2E12FF0E0A4E0F595E795AA95E1F708
:1032C000E358FC4F2081F70120831F70E12FF0E0CD
:1032D000E358FC4F2081F301EA58FF4F2083D301CC
:1032E0001A966C9199D2F3012285E22FF0E0B4E0B6
:1032F000F595E795BA95E1F7E358FC4F3081D30196
:10330000A958BF4F3C932F70E22FF0E0E358FC4FD9
:103310002081F301E858FF4F2083D3011B966C9165
:103320007BD2F3012385E22FF0E014E0F595E795D9
:103330001A95E1F7E358FC4F3081D301A758BF4FEE
:103340003C932F70E22FF0E0E358FC4F2081F30113
:10335000E658FF4F2083D3011C966C915DD2F30198
:103360002485E22FF0E004E0F595E7950A95E1F772
:10337000E358FC4F3081D301A558BF4F3C932F70C9
:10338000E22FF0E0E358FC4F2081F301E458FF4FB7
:103390002083D3011D966C913FD2F3012585E22F46
:1033A000F0E034E0F595E7953A95E1F7E358FC4F06
:1033B0003081D301A358BF4F3C932F70E22FF0E030
:1033C000E358FC4F2081F301E258FF4F20839B2CF0
:1033D0006301F0E8CF0ED11C0B2D7981172F4A81A4
:1033E000202F2919241710F55801D8016C914A8310
:1033F00013D2F6013197D8012D918D01A22FB0E0A3
:1034000074E0B595A7957A95E1F7A358BC4F2C9138
:103410002083D501EC91EF70F0E0E358FC4F208160
:10342000F6012083F2E0CF0ED11CD9CF50E04B5FE4
:103430005F4F440F551F80959095E40EF51EDC01FB
:1034400034E0B695A7953A95E1F7AF70BB27A3583E
:10345000BC4F2C91D7012C93FC01EF70FF27E35850
:10346000FC4F208111962C931197FC01EF2FFF2721
:10347000E295EF70E358FC4F208112962C9312973F
:10348000E92FFF27EF70FF27E358FC4F8081139649
:103490008C93F301E550FF4F445F4083C301C7DEC7
:1034A0007092EE056092ED0581E001C080E00F9022
:1034B0000F90DF91CF911F910F91FF90EF90DF90D0
:1034C000CF90BF90AF909F907F906F900895862F80
:1034D00086958695887098E0980F891749F0E82FAF
:1034E000F0E0E358FC4F2081621719F08F5FF5CFB1
:1034F00080E00895FF920F931F93CF93DF93EC0129
:10350000F12C8FEF9FEF8E0107591F4FF80120819B
:10351000F21638F4FE01EF0DF11D65A17DD1F39493
:10352000F5CF883B904F39F08F8598890196988B1D
:103530008F871D8E19C08EA18E838FA18F8388A542
:10354000888789A589878D81811107C09E818C819B
:10355000981719F08E818F3F39F489899A890196DD
:103560009A8B898B81E08D8FDF91CF911F910F9185
:10357000FF900895CF93DF93EC018A819B8103979D
:1035800051F0CE0140DE8C8D882319F0CE01B2DFE0
:103590001C8E8D8D01C080E0DF91CF9108951F9327
:1035A000CF93DF93EC0102DE882319F09F8D9F5F9C
:1035B0009F8F9E8D891771F098A1903518F42BE09C
:1035C00030E002C02DE130E098A1290F311D28A381
:1035D0008E8F03C088A18C5E88A388A1803A08F4EE
:1035E0006BC08AA19BA1969587959BA38AA38F8D7B
:1035F000853028F08AA19BA198609BA38AA388A10B
:10360000805A88A31F8E89A1882309F443C08CA106
:103610008F5F8CA38C3008F44FC06AA17BA16F73BD
:10362000CE0155DF182F6AA17BA146E076956795FC
:103630004A95E1F7CE014BDF90E1199F90011124EB
:10364000822BBE0167597F4FFB019081DE01A85993
:10365000BF4F9923A9F0FB01908121E0290F20831E
:10366000AE01490F511DFA0185A3FB0190818C9198
:10367000981770F019A281E08C8FCE01B0DD08C0E0
:103680008C939C91973090F09C91943478F4E3CF94
:103690001CA212C08AA19BA188339B4069F481E0DF
:1036A00089A31CA2C759DF4F188206C019A28F85B3
:1036B00098890196988B8F87DF91CF911F910895FC
:1036C000CF92DF92EF92FF920F931F93CF93DF93EE
:1036D000EC018C0104591F4FF801808191E0980F93
:1036E0009083811134C06E01FAE6CF0ED11CF60131
:1036F0008081EF56FF4F9081891740F0CE016FDD3A
:103700008B899C8901969C8B8B8B21C0FE01E80FD5
:10371000F11DE359FF4F608170E07E01FBE6EF0E83
:10372000F11CF701808191E0980F908302C075959C
:1037300067958A95E2F76170CE0147DDF7018081D8
:10374000863028F01082F60180818F5F8083F80137
:103750008081883008F01082DF91CF911F910F9106
:10376000FF90EF90DF90CF900895FC01228133818C
:103770002430310509F413CFFC0122813381233039
:10378000310509F49DCF08951F920F920FB60F9245
:1037900011242F933F934F935F936F937F938F9356
:1037A0009F93AF93BF93EF93FF938091ED0590911B
:1037B000EE05DBDFFF91EF91BF91AF919F918F916C
:1037C0007F916F915F914F913F912F910F900FBE1D
:1037D0000F901F9018951F93CF93DF93EC013AD071
:1037E000182F8823A1F0D093EE05C093ED0561E07A
:1037F000888D0E94201060E08F890E94201061E077
:10380000898D0E942010CE01EADCCE01A5DC812F3B
:10381000DF91CF911F910895682780E1689F900103
:103820001124622770E0362F2227492F50E0242BE5
:10383000352BCB01F4E095958795FA95E1F728278C
:103840003927CB01A3E0880F991FAA95E1F78227BA
:103850009327089581E00895FC0165830895FC0194
:1038600064830895FC0162870895FC0163870895CD
:10387000FC01648708954095FC0125854223462B71
:1038800045870895FC0186810895FC01878108958C
:10389000FC0180850895FC018185089580E00895EC
:1038A000CF93DF93EC01E881F9810280F381E02D71
:1038B000CE010995811103C00E94B610F4CFDF91AB
:1038C000CF910895CF93DF93EC018A819B81039779
:1038D00019F40E94B610F9CF81E0DF91CF910895DD
:1038E0008F929F92AF92BF92CF92DF92EF92FF9210
:1038F000CF93DF93EC016B010E945D0F4B015C01E4
:10390000E12CF12C0E945D0F681979098A099B0945
:103910006C157D058E059F0560F4E881F9810280B4
:10392000F381E02DCE010995811105C00E94B610EA
:10393000E9CF80E001C081E0DF91CF91FF90EF906F
:10394000DF90CF90BF90AF909F908F9008958F920F
:103950009F92AF92BF92CF92DF92EF92FF92CF935E
:10396000DF93EC016B010E945D0F4B015C01E12CC8
:10397000F12C0E945D0F681979098A099B096C1561
:103980007D058E059F0538F48A819B81039729F474
:103990000E94B610EECF80E001C081E0DF91CF91B0
:1039A000FF90EF90DF90CF90BF90AF909F908F905F
:1039B0000895FC0181E993E0918380831382128250
:1039C0008FEF84838287838714861586108A1786F3
:1039D000128A118A148A138A08958F929F92AF9245
:1039E000BF92EF92FF920F931F93CF93DF93EC015F
:1039F000188219821A824423A9F1E0E0F0E08B01D9
:103A00000A5F1F4F7B0189E0E80EF11C842E912C88
:103A1000A12CB12CD801AE0FBF1F2C91D701AE0F36
:103A2000BF1F6C912223D1F06623C1F030E040E04B
:103A300050E02F5F3F4F4F4F5F4F70E080E090E0CE
:103A40006F5F7F4F8F4F9F4FE7D19B01AC01C50147
:103A5000B401E2D1DE01AE0FBF1F8C933196E3308B
:103A6000F105C1F6CE01DF91CF911F910F91FF902B
:103A7000EF90BF90AF909F908F900895CF92DF927C
:103A8000EF92FF92CF93DF93EC018091F305909139
:103A9000F4059C012F5F3F4F3093F4052093F3050D
:103AA0008617970794F10E945D0F9B01AC01E0918E
:103AB000F305F091F40588EE93E0E89FB001E99FEB
:103AC000700DF89F700D1124882777FD8095982F31
:103AD000C090EF05D090F005E090F105F090F20570
:103AE0002C193D094E095F09CDD13A8329831092E3
:103AF000F4051092F3050E945D0F6093EF0570933B
:103B0000F0058093F1059093F205DF91CF91FF903E
:103B1000EF90DF90CF900895AF92BF92CF92DF9257
:103B2000EF92FF920F931F93CF93DF9300D01F92DA
:103B3000CDB7DEB78C01B62EF80183819481A581C3
:103B4000B681892B8A2B8B2BD1F00E94690FC090F4
:103B5000F505D090F605E090F705F090F8056C19A2
:103B60007D098E099F09D8011396CD90DD90ED90C7
:103B7000FC9016976C157D058E059F05E8F20E9456
:103B8000690F6093F5057093F6058093F7059093A0
:103B9000F805E090FB05F090FC05E114F10449F113
:103BA000F701A484D80111968D919C9112978436C7
:103BB000910508F41486D701ED91FC91C280D38061
:103BC0004B2DB701CE01019608DFF70145855685DB
:103BD000628173819E012F5F3F4FC701F6010995F6
:103BE000D7011C96AC921C971496ED90FC901597FB
:103BF000D4CF69E170E0C80141DF0F900F900F90C2
:103C0000DF91CF911F910F91FF90EF90DF90CF90B8
:103C1000BF90AF900895CF92DF92EF92FF920F93F3
:103C20001F93CF93DF93EC014423E9F061157105F5
:103C300071F19B0140E050E060E472E48FE090E0BD
:103C400043D1CB80DC80ED80FE8089019A010C1588
:103C50001D052E053F0510F4970186010B831C837B
:103C60002D833E8314C06115710569F09B0140E00E
:103C700050E060E472E48FE090E026D12B833C8337
:103C80004D835E8304C01B821C821D821E82DF91D5
:103C9000CF911F910F91FF90EF90DF90CF900895FB
:103CA000CF92DF92EF92FF920F931F93CF93DF9308
:103CB000EC016B018A017901121613061CF07A01DE
:103CC00000E010E0E881F9810480F581E02DCE016B
:103CD0000995C801880F991F800F911F8C0D9D1D9C
:103CE0009B838A83FE86ED86E881F9810284F385D1
:103CF000E02DCE01099541E0BC018DEF95E08BDF11
:103D0000CE01DF91CF911F910F91FF90EF90DF9047
:103D1000CF9008958FEF8093FD051092FF051092CC
:103D2000FE0508958230E8F4E82FF0E0EE0FFF1F63
:103D3000EC5FF94F71836083813041F080916900BD
:103D40008C7F842B80936900E89A089580916900A4
:103D5000440F551F440F551F837F842B80936900A8
:103D6000E99A08951F920F920FB60F9211242F9384
:103D70003F934F935F936F937F938F939F93AF93F3
:103D8000BF93EF93FF938091040690910506892BD2
:103D900029F0E0910406F09105060995FF91EF9155
:103DA000BF91AF919F918F917F916F915F914F9153
:103DB0003F912F910F900FBE0F901F9018951F925B
:103DC0000F920FB60F9211242F933F934F935F934F
:103DD0006F937F938F939F93AF93BF93EF93FF93D3
:103DE0008091060690910706892B29F0E09106063E
:103DF000F09107060995FF91EF91BF91AF919F91C7
:103E00008F917F916F915F914F913F912F910F9083
:103E10000FBE0F901F901895DB018F939F9376D064
:103E2000BF91AF91A29F800D911DA39F900DB29F56
:103E3000900D11240895AA1BBB1B51E107C0AA1FB6
:103E4000BB1FA617B70710F0A61BB70B881F991F3B
:103E50005A95A9F780959095BC01CD01089597FBDF
:103E6000072E16F4009406D077FD08D0E4DF07FC97
:103E700005D03EF4909581959F4F0895709561957A
:103E80007F4F0895A1E21A2EAA1BBB1BFD010DC096
:103E9000AA1FBB1FEE1FFF1FA217B307E407F507FA
:103EA00020F0A21BB30BE40BF50B661F771F881FD6
:103EB000991F1A9469F760957095809590959B016C
:103EC000AC01BD01CF010895052E97FB16F40094B7
:103ED0000FD057FD05D0D6DF07FC02D046F408C04E
:103EE00050954095309521953F4F4F4F5F4F089526
:103EF00090958095709561957F4F8F4F9F4F089556
:103F000015D0B7FF0895821B930B08950FD0A59F7E
:103F1000900DB49F900DA49F800D911D11240895C4
:103F2000EE0FFF1F0590F491E02D0994A29FB001C0
:103F3000B39FC001A39F700D811D1124911DB29FDD
:103F4000700D811D1124911D08955058BB27AA277B
:103F50000ED075C166D130F06BD120F031F49F3FA7
:103F600011F41EF45BC10EF4E095E7FB51C1E92F9B
:103F700077D180F3BA17620773078407950718F0A3
:103F800071F49EF58FC10EF4E0950B2EBA2FA02D83
:103F90000B01B90190010C01CA01A0011124FF27F6
:103FA000591B99F0593F50F4503E68F11A16F040F1
:103FB000A22F232F342F4427585FF3CF46953795F0
:103FC0002795A795F0405395C9F77EF41F16BA0BB5
:103FD000620B730B840BBAF09150A1F0FF0FBB1F63
:103FE000661F771F881FC2F70EC0BA0F621F731FAC
:103FF000841F48F4879577956795B795F7959E3F09
:1040000008F0B3CF9395880F08F09927EE0F979596
:1040100087950895D9D008F481E008950CD00FC198
:1040200007D140F0FED030F021F45F3F19F0F0C02E
:10403000511139C1F3C014D198F39923C9F3552311
:10404000B1F3951B550BBB27AA276217730784078B
:1040500038F09F5F5F4F220F331F441FAA1FA9F341
:1040600033D00E2E3AF0E0E830D091505040E69533
:10407000001CCAF729D0FE2F27D0660F771F881F94
:10408000BB1F261737074807AB07B0E809F0BB0B83
:10409000802DBF01FF2793585F4F2AF09E3F5105A7
:1040A00068F0B6C000C15F3FECF3983EDCF3869544
:1040B00077956795B795F7959F5FC9F7880F911D1D
:1040C0009695879597F90895E1E0660F771F881F09
:1040D000BB1F621773078407BA0720F0621B730BBC
:1040E000840BBA0BEE1F88F7E095089504D068940E
:1040F000B111D9C00895BCD088F09F5790F0B92F66
:104100009927B751A0F0D1F0660F771F881F991F2C
:104110001AF0BA95C9F712C0B13081F0C3D0B1E03E
:104120000895C0C0672F782F8827B85F39F0B93F4E
:10413000CCF3869577956795B395D9F73EF490952E
:104140008095709561957F4F8F4F9F4F0895E894AC
:1041500009C097FB3EF490958095709561957F4FCF
:104160008F4F9F4F9923A9F0F92F96E9BB2793957D
:10417000F695879577956795B795F111F8CFFAF48D
:10418000BB0F11F460FF1BC06F5F7F4F8F4F9F4FBE
:1041900016C0882311F096E911C0772321F09EE81C
:1041A000872F762F05C0662371F096E8862F70E082
:1041B00060E02AF09A95660F771F881FDAF7880F5C
:1041C0009695879597F90895990F0008550FAA0BB2
:1041D000E0E8FEEF16161706E807F907C0F012161A
:1041E0001306E407F50798F0621B730B840B950B1D
:1041F00039F40A2661F0232B242B252B21F4089572
:104200000A2609F4A140A6958FEF811D811D08950E
:1042100097F99F6780E870E060E008959FEF80EC79
:10422000089500240A94161617061806090608951C
:1042300000240A9412161306140605060895092E82
:104240000394000C11F4882352F0BB0F40F4BF2BF1
:1042500011F460FF04C06F5F7F4F8F4F9F4F089531
:1042600057FD9058440F551F59F05F3F71F0479527
:10427000880F97FB991F61F09F3F79F0879508950C
:10428000121613061406551FF2CF4695F1DF08C02B
:10429000161617061806991FF1CF86957105610548
:1042A00008940895E894BB2766277727CB0197F9F0
:1042B00008958ADF08F48FEF08950BD0C0CFB1DFE7
:1042C00028F0B6DF18F0952309F0A2CFA7CF11246C
:1042D000EACFC6DFA0F3959FD1F3950F50E0551FAD
:1042E000629FF001729FBB27F00DB11D639FAA274B
:1042F000F00DB11DAA1F649F6627B00DA11D661F9A
:10430000829F2227B00DA11D621F739FB00DA11DBA
:10431000621F839FA00D611D221F749F3327A00D74
:10432000611D231F849F600D211D822F762F6A2F10
:1043300011249F5750408AF0E1F088234AF0EE0F95
:10434000FF1FBB1F661F771F881F91505040A9F7A2
:104350009E3F510570F05CCFA6CF5F3FECF3983ED7
:10436000DCF3869577956795B795F795E7959F5F09
:10437000C1F7FE2B880F911D9695879597F90895A3
:1043800023DF880B990B0895CF93DF93823091053B
:1043900010F482E090E0E0910A06F0910B0620E034
:1043A00030E0A0E0B0E0309739F14081518148170A
:1043B0005907B8F04817590771F482819381109713
:1043C00029F013969C938E9312972CC090930B0612
:1043D00080930A0627C02115310531F04217530793
:1043E00018F0A901DB0101C0EF019A01BD01DF0155
:1043F0000280F381E02DD7CF21153105F9F0281B7C
:10440000390B2430310580F48A819B816115710557
:1044100021F0FB019383828304C090930B06809369
:104420000A06FE01329644C0FE01E20FF31F81939B
:10443000919322503109398328833AC0209108068C
:1044400030910906232B41F42091020130910301A0
:104450003093090620930806209100013091010154
:104460002115310541F42DB73EB74091040150911B
:104470000501241B350BE0910806F0910906E217AF
:10448000F307A0F42E1B3F0B2817390778F0AC0177
:104490004E5F5F4F2417350748F04E0F5F1F509354
:1044A0000906409308068193919302C0E0E0F0E092
:1044B000CF01DF91CF910895CF93DF93009709F457
:1044C00087C0FC01329713821282C0910A06D091F4
:1044D0000B06209781F420813181280F391F8091AC
:1044E0000806909109068217930779F5F09309065B
:1044F000E09308066DC0DE0120E030E0AE17BF0794
:1045000050F412964D915C9113979D014115510500
:1045100009F1DA01F3CFB383A28340815181840F83
:10452000951F8A179B0771F48D919C911197840FA9
:10453000951F02969183808312968D919C9113977B
:10454000938382832115310529F4F0930B06E093C0
:104550000A063EC0D9011396FC93EE9312974D9133
:104560005D91A40FB51FEA17FB0779F48081918153
:10457000840F951F0296D90111969C938E93828188
:10458000938113969C938E931297E0E0F0E08A81DA
:104590009B81009719F0FE01EC01F9CFCE01029644
:1045A00028813981820F931F2091080630910906D6
:1045B0002817390769F4309729F410920B061092E6
:1045C0000A0602C013821282D0930906C09308061D
:1045D000DF91CF910895A0E0B0E0E0EFF2E232C1C8
:1045E000EC01CB01209711F4CFDEB4C0FE01E60F41
:1045F000F71F9E0122503109E217F30708F4A8C003
:10460000D9010D911C91119706171707B0F00530CD
:10461000110508F49BC0A8014450510946175707DB
:1046200008F494C002501109061B170B0193119353
:104630006D937C93CF0140DF89C05B01A01AB10A62
:104640004E01800E911EA0910A06B0910B06612CBE
:10465000712C60E070E0109709F449C0A815B90505
:10466000C9F5ED90FC901197670142E0C40ED11C92
:10467000CA14DB0478F147018A189B08640142E000
:10468000C40ED11C1296BC9012971396AC91B5E053
:10469000CB16D10440F0B282A38391828082D901EB
:1046A0008D939C9309C00E5F1F4F0E0D1F1DF901C6
:1046B00011830083EB2DFA2F6115710531F0DB01B9
:1046C0001396FC93EE93129741C0F0930B06E09380
:1046D0000A063CC06D917C9111976616770608F426
:1046E0003B01BD0112960D90BC91A02DB4CF6091FD
:1046F00008067091090668157905E9F468167906C7
:10470000D0F440910001509101014115510541F44F
:104710004DB75EB76091040170910501461B570BC0
:10472000E417F507A8F4F0930906E0930806F901E9
:10473000918380830BC028DE7C01009749F0A8019B
:10474000BE013FD0CE01B8DEC70104C0CE0102C019
:1047500080E090E0CDB7DEB7EEE090C081E090E081
:10476000F894A3C01F93FC0199278827BC01E89403
:1047700011911032E9F3193010F01E30C8F31B32DA
:1047800049F01D3241F4689405C043D0610F711D9A
:10479000811D911D119110531A30B8F33EF490957C
:1047A0008095709561957F4F8F4F9F4F1F91089512
:1047B000FB01DC0102C005900D9241505040D8F73A
:1047C0000895FB01DC0102C001900D924150504060
:1047D000D8F70895FB01DC018D910190801901103B
:1047E000D9F3990B0895FB01DC0101900D92002093
:1047F000E1F70895FB01DC014150504048F0019081
:104800000D920020C9F701C01D9241505040E0F7C1
:104810000895592F482F372F262F660F771F881F8F
:10482000991F660F771F881F991F620F731F841FC0
:10483000951F660F771F881F991F08952F923F922B
:104840004F925F926F927F928F929F92AF92BF92A0
:10485000CF92DF92EF92FF920F931F93CF93DF934C
:10486000CDB7DEB7CA1BDB0B0FB6F894DEBF0FBEA9
:10487000CDBF09942A88398848885F846E847D84F6
:104880008C849B84AA84B984C884DF80EE80FD80F8
:104890000C811B81AA81B981CE0FD11D0FB6F8946E
:0E48A000DEBF0FBECDBFED010895F894FFCF2F
:1048AE0000000C0620002A2A2A2A2A2A382C7B22CB
:1048BE006461746122203A20222F726164696F2F25
:1048CE006F6C642F007B226461746122203A202277
:1048DE002F726164696F2F6E65772F006F6E007B8C
:1048EE002266696C65223A22726164696F32736561
:1048FE007269616C2E696E6F222C2275726C223A6F
:10490E0022736D61727475726C2E69742F7261648C
:10491E00696F3273657269616C222C227665722220
:10492E003A2200222C2270696E73223A2274783A4F
:10493E00003B72783A003B6C65643A00222C22737D
:10494E0074617465223A2274783A007B2265727221
:10495E00223A225278206E6F7420706C75676765EC
:10496E0064227D007B22726574223A222F7261646A
:10497E00696F2F4F4B227D002F726164696F2F6E0E
:10498E0065772F313233342F302F6F6666007B22DE
:10499E00657272223A225478206E6F7420706C7594
:1049AE0067676564227D0072656400677265656E77
:1049BE0000626C7565007768697465007B226572AC
:1049CE0072223A22494E56414C494420434F4C4F95
:1049DE0052203A207265642C677265656E2C77687A
:1049EE006974652C6F6666227D007B227265742267
:1049FE003A22496E6974227D007B22726574223AD6
:104A0E00225465737420526164696F227D007B228B
:104A1E006461746122203A20222F726164696F2FC3
:104A2E00746578742F007B22657272223A22546567
:104A3E00787420746F6F206C6F6E67227D007B22FE
:104A4E00657272223A22494E56414C494420434FD8
:104A5E004D4D414E44202D202F696E666F2C2F72C6
:104A6E006164696F2C2F6C6564227D0072616469CC
:104A7E006F006F6C64006E65770074657874007BF0
:104A8E0022657272223A22494E56414C49442050B8
:104A9E00524F544F434F4C202D202F726164696F3B
:104AAE002F6F6C642C2F726164696F2F6E65772C7B
:104ABE002F726164696F2F74657874227D00696E40
:104ACE00666F00000000002D0738079B0043079417
:104ADE0000980000000000A2090B0B26093F0931C7
:104AEE000981096E616E00696E66006F7666002E32
:104AFE000000000000EB1BBA1AA4173019A21750C1
:104B0E001C621CA71C701C2F1C321C351C381C3B35
:104B1E001C2C1C421C451C481C4B1C4E1C0D0E1301
:104B2E001516191A1C232526292A2C3234000000AA
:104B3E00002A1C060F060F060F060F501C621CA73C
:104B4E001C701C2F1C321C351C381C3B1C2C1C4290
:0A4B5E001C451C481C4B1C4E1C009B
:00000001FF
